:020000040800F2
:10000000C0070020290200085F340008AD2900085D
:100010005D3400082F030008093C000800000000C0
:10002000000000000000000000000000873A000807
:10003000310300080000000061340008893A00081C
:10004000430200084302000843020008430200087C
:10005000430200084302000843020008430200086C
:10006000430200084302000843020008430200085C
:10007000430200084302000843020008430200084C
:10008000430200084302000843020008430200083C
:10009000430200084302000843020008430200082C
:1000A000430200084302000843020008430200081C
:1000B000430200084302000843020008BD2900086B
:1000C000B129000843020008430200084302000867
:1000D00043020008430200084302000843020008EC
:1000E00043020008430200084302000843020008DC
:1000F00043020008430200084302000843020008CC
:1001000043020008430200084302000843020008BB
:100110004302000843020008253B00084302000890
:10012000430200084302000843020008430200089B
:10013000430200084302000843020008430200088B
:10014000430200084302000843020008430200087B
:10015000430200084302000843020008430200086B
:10016000430200084302000843020008430200085B
:100170004302000843020008430200080000000098
:10018000430200084302000800F002F800F03CF8C7
:100190000AA090E8000C82448344AAF10107DA45E2
:1001A00001D100F031F8AFF2090EBAE80F0013F0F8
:1001B000010F18BFFB1A43F001031847F03C000081
:1001C000103D0000103A24BF78C878C1FAD8520711
:1001D00024BF30C830C144BF04680C6070470000C1
:1001E0000023002400250026103A28BF78C1FBD840
:1001F000520728BF30C148BF0B6070471FB503F0DE
:100200002BFE1FBD10B510BD00F058F81146FFF7CA
:10021000F5FF03F0FBFC00F076F803B4FFF7F2FF04
:1002200003BC00F07DF800000948804709480047FA
:10023000FEE7FEE7FEE7FEE7FEE7FEE7FEE7FEE796
:10024000FEE7FEE704480549054A064B70470000F3
:10025000E93A000889010008C0010020C007002019
:10026000C0030020C00300204FF0000200B5134679
:1002700094469646203922BFA0E80C50A0E80C50C6
:10028000B1F12001BFF4F7AF090728BFA0E80C5077
:1002900048BF0CC05DF804EB890028BF40F8042B70
:1002A00008BF704748BF20F8022B11F0804F18BFDD
:1002B00000F8012B7047704770477047754600F093
:1002C0002BF8AE4605006946534620F007008546E8
:1002D00018B020B5FFF7B6FFBDE820404FF000068C
:1002E0004FF000074FF000084FF0000B21F007011E
:1002F000AC46ACE8C009ACE8C009ACE8C009ACE861
:10030000C0098D46704710B50446AFF30080204603
:10031000BDE81040FFF781BF004870475C01002036
:1003200001491820ABBEFEE7260002007047FEE739
:10033000704772B6FEE7704730B44379012B1AD08C
:100340004FF0010C80F805C00223037103681C689C
:1003500001F010014FF47C658D4042F04002AC4347
:1003600002FA01F12143196080F804C000214171B3
:1003700030BC0020704730BC0220704730B4437955
:10038000012B1AD04FF0010C80F805C00223037135
:1003900003681C6801F010014FF47C658D4042F049
:1003A0008002AC4302FA01F12143196080F804C0D5
:1003B0000021417130BC0020704730BC02207047E2
:1003C0002DE9F04704460D469246607901280BD08E
:1003D0004FF0010884F805800220207128680AF097
:1003E0001006042803D05AE00220BDE8F08700F090
:1003F000C9FA07464FF00309BAF1000F12D020687E
:10040000406B10F0004F31D000F0BCFAC01B012847
:1004100027D9206940F00800206184F80490032067
:10042000BDE8F0872068406B10F4004F12D000F058
:10043000A9FAC01B012808D9206940F008002061F2
:1004400084F804900320BDE8F0872068406B10F426
:10045000004FECD1012000F03BF92168A869086445
:100460000AE02068406B10F0004FCDD1012000F071
:100470002FF92168A86948642068816C40F2FF3236
:10048000B2409143EA69B240114381642068C16C73
:10049000FF22B24091432A6AB2401143C1642869E5
:1004A000012808D12068816B1F22B24091436A69FC
:1004B000B240114381632068C16B0722B24091436F
:1004C000AB682A681A43EB681A43B2401143C16310
:1004D000206801684FF48042B24091430160206877
:1004E000016840F6FC72B24091436A68B240114321
:1004F000016020680168C022B2409143016084F825
:10050000048000206071BDE8F087704770B5044634
:10051000206801684FF0040511F4005F12D0416BB0
:1005200011F4005F0ED02571216941F001012161B4
:10053000E90241632068016821F48051016020468E
:10054000FFF7E3FF2068016811F0005F15D0416BF1
:1005500011F0005F11D02571216941F00201216184
:100560004FF0005141632068016821F08051016023
:100570002046BDE87040FFF7DEBE70BD70B5044692
:10058000002C03D02079002510B105E0012070BDBA
:100590006571204600F008F80220207125610120D5
:1005A0002071002070BD000010B586B004461421F3
:1005B0006846FFF759FE15492068884223D1144840
:1005C000816D41F000518165816D01F0005105910F
:1005D000C16C41F00101C164C06C694600F00100CA
:1005E00005903020009003200190002002904FF0F1
:1005F000904000F081F800221146362000F0DCFC2B
:10060000362000F0CBFC06B010BD000000740040A6
:100610000010024010B44279012A17D0012343711F
:10062000022202710268D2F800C001F0100403FA3D
:1006300004F44CEA040CC2F800C051B101680A6825
:1006400002F47012B2F5802F0ED011E010BC02201F
:10065000704701680A6802F03C02042A08D14A681F
:1006600042F001024A6003E04A6842F002024A6036
:1006700003710021417110BC0020704710B50024A7
:1006800090F82510022903D00421C16301241AE047
:1006900001680A6822F00E020A6001680A6822F006
:1006A00001020A6090F84410036C01F01C02012161
:1006B00001FA02F25A6080F82510002180F8241017
:1006C000816B01B18847204610BD90F82500704726
:1006D00070B5044600F056F90546B4F1FF3F02D06C
:1006E00004480078044400F04DF9401BA042FAD3BE
:1006F00070BD00001C0000202DE9F84F00220B689F
:10070000002B7CD00324954E954F0F250123D1F863
:1007100000C003FA02F80CEA0803002B70D0D1F8ED
:1007200004C0BCF1010F08D0BCF1020F05D0BCF130
:10073000110F02D0BCF1120F1DD1D0F808904FEA72
:10074000420C04FA0CFA29EA0A09D1F80CA00AFAB8
:100750000CFC4CEA090CC0F808C0D0F804C02CEA24
:10076000080C91F80490C9F3001909FA02F949EA52
:100770000C0CC0F804C0D1F804C034EA0C090BD149
:10078000D0F82C9029EA0808CCF3C00C0CFA02FC33
:100790004CEA080CC0F82CC0D0F80C804FEA420C90
:1007A00004FA0CF928EA0908D1F808A00AFA0CFAA8
:1007B0004AEA0808C0F80C80D1F80480B8F1020FAA
:1007C00002D0B8F1120F15D14FEAD20800EB880A17
:1007D000DAF820B04FEA42784FEAD86805FA08FE06
:1007E0002BEA0E0BD1F810E00EFA08F848EA0B08D5
:1007F000CAF82080D0F8008028EA090801E095E0D6
:100800008CE091F8049009F0030909FA0CFC4CEA19
:10081000080CC0F800C0D1F804C01CF0805F7DD087
:10082000D6F860C04CF0010CC6F860C0D6F860C0C5
:100830000CF0010CCDF800C022F0030C0CF1804943
:1008400009F58039D9F808C04FEA82784FEA18785C
:1008500005FA08FA2CEA0A0AB0F1904F6BD0A0F121
:10086000904CBCF5806C63D0A0F1904CBCF5006C52
:1008700064D0A0F1904CBCF5406C62D0A0F1904CDB
:10088000BCF5805C60D0A0F1904CBCF5A05C5ED063
:10089000A0F1904CBCF5C05C5CD04FF0070C0CFA9A
:1008A00008FC4CEA0A0CC9F808C0D7F800C02CEACA
:1008B000030CD1F8048018F4803F01D04CEA030CFB
:1008C000C7F800C0DFF89C80D8F800C02CEA030C01
:1008D000D1F8049019F4003F01D04CEA030CC8F899
:1008E00000C0DFF88480D8F800C02CEA030CD1F8EF
:1008F000049019F4801F01D04CEA030CC8F800C022
:10090000DFF86880D8F800C02CEA030CD1F8049016
:1009100019F4001F01D04CEA030C00E001E0C8F814
:1009200000C0521C0B68D3407FF4F0AE00F020B83A
:100930004FF0010CB3E74FF0000CB0E74FF0020CA2
:10094000ADE74FF0030CAAE74FF0040CA7E74FF018
:10095000050CA4E74FF0060CA1E7000000100240D0
:100960000004014004040140080401400C0401405B
:1009700018BCBDE8E08F002A01D081617047816218
:100980007047000001488068704700001C0000208C
:1009900090F84120202A01D00220704790F8402092
:1009A000012A20D0012280F84020242280F8412012
:1009B0000268136823F0010313600268136823F4CC
:1009C00080531360026813681943116001680A6854
:1009D00042F001020A60202180F84110002180F8D5
:1009E0004010002070470220704790F84120202AD4
:1009F00001D00220704790F84020012A1ED0012229
:100A000080F84020242280F841200268136823F0F7
:100A1000010313600268136823F4706343EA012141
:100A2000116001680A6842F001020A60202180F822
:100A30004110002180F840100020704702207047CC
:100A400070477047036899691A6811F4807F0CD069
:100A500012F0800F09D0D0F844C04CF0010CC0F85F
:100A600044C04FF4807CC3F81CC011F4806F0CD0DC
:100A700012F0800F09D0436C43F008034364D0F8B0
:100A800000C04FF48063CCF81C3011F4007F0AD012
:100A900012F0800F07D0416C41F0020141640268FE
:100AA0004FF40071D161416C11F00B0F01D002F0D5
:100AB0002DB87047026891691268436B002B00D013
:100AC00018477047704770B50446002C04D094F85E
:100AD0004100002510B106E0012070BD84F84050AF
:100AE000204600F0B5F9242084F841002068016810
:100AF00021F0010101606068216820F070600861E8
:100B00002068816821F400418160E068012808D0F4
:100B1000A068216840F404408860E068022806D09C
:100B200009E0A068216840F400408860F5E721688A
:100B30004FF4006048602068416841F4004141F092
:100B4000007141602068C16821F40041C1606169A1
:100B500020690843A16940EA01202168C860216A30
:100B6000E0690843216808602068016841F00101DC
:100B700001606564202084F84100256384F84250B8
:100B8000002070BD704700002DE9F84F0446DDF8E5
:100B90002880894617469A4694F84100202802D0BA
:100BA000022000F09FB894F84000012810D00120E6
:100BB00084F84000FFF7E6FE054601221923D10321
:100BC0002046009502F057FA28B1012000F08AB8BB
:100BD000022000F087B8222084F84100102084F819
:100BE0004200002666646762A4F82AA06663618DED
:100BF0003A48FF27FF2909D93A46278500904FF048
:100C000080734946204602F007FA0AE0618D21858B
:100C1000009094F828204FF000734946204602F0D7
:100C2000FBF9608D00283FD02A464146204602F05D
:100C300059FA10B1012000F055B82068406A616A85
:100C40000870606A401C6062208D401E80B2208562
:100C5000618D491E6185618D19B310BB4346002229
:100C600080212046009502F006FA10B1012000F024
:100C700039B8608DFF2809D93A4627854FF080732F
:100C800049462046009602F0C7F90AE0608D2085AB
:100C9000009694F828204FF000734946204602F051
:100CA000BBF9608D0028BFD12A464146204602F09C
:100CB0006BFA10B1012000F015B820682021C16145
:100CC00020684268064B1A40426084F8411084F85C
:100CD000426084F84060002000F004B800240080E6
:100CE00000E800FE18BCBDE8E08F00002DE9F84FD9
:100CF0000446DDF82880894617469A4694F8410054
:100D0000202802D0022000F09FB894F8400001286B
:100D100010D0012084F84000FFF734FE0546012280
:100D20001923D1032046009502F0A5F928B101202E
:100D300000F08AB8022000F087B8212084F8410032
:100D4000102084F84200002666646762A4F82AA096
:100D50006663618D3A48FF27FF2908D93A462785FF
:100D6000C30200904946204602F056F90AE0618D20
:100D70002185009094F828204FF0007349462046C2
:100D800002F04AF9608D00283FD02A4641462046AD
:100D900002F026FA10B1012000F056B8606A21680E
:100DA00000788862606A401C6062608D401E6085C9
:100DB000208D401E80B22085618D19B310BB434643
:100DC000002280212046009502F055F910B1012043
:100DD00000F03AB8608DFF2809D93A4627854FF0D0
:100DE000807349462046009602F016F90AE0608DAD
:100DF0002085009694F828204FF00073494620463D
:100E000002F00AF9608D0028BFD12A4641462046EB
:100E100002F0BAF910B1012000F016B820682021C4
:100E2000C16120684268074B1A40426084F8411053
:100E300084F8426084F84060002000F005B80000AB
:100E40000020008000E800FE18BCBDE8E08F000034
:100E500010B5A8B00446142122A8FFF705FA88218E
:100E60006846FFF701FA1F492068884238D14020C0
:100E7000009080011490684600F00CFC08B1FFF768
:100E800058FA194CE06C40F00200E064E06C22A9D2
:100E900000F002002790C020229012202390002012
:100EA000249003202590042026901048FFF724FC6E
:100EB000A06D40F40010A065A06D002200F40010A9
:100EC000279011461F2000F077F81F2000F066F8E9
:100ED00000221146202000F06FF8202000F05EF87C
:100EE00028B010BD0054004000100240000400482B
:100EF00070477047024881680278114481607047EA
:100F00001C00002010B50024032000F089F8002008
:100F100000F008F808B1012401E000F029F82046AB
:100F200010BD000070B5054600240F4E3078002833
:100F300017D04FF47A71B1FBF0F00C490968B1FB9E
:100F4000F0F001F0AFFB08B101240BE0102D06D248
:100F500000222946501E00F02FF8756002E001249F
:100F600000E00124204670BD1C0000202800002065
:100F7000094808B5016E41F001010166016E01F0FA
:100F800001010091816D41F080518165806D00F01B
:100F90008050009008BD00000010024000280ADBCD
:100FA00000F01F01012202FA01F14009800000F166
:100FB000E020C0F80011704710B4184B1B68C3F351
:100FC0000223C3F1070CBCF1040F01D94FF0040C4C
:100FD0001C1D072C01D2002300E0DB1E012404FAB3
:100FE0000CFCACF1010C0CEA0101994004FA03F38A
:100FF0005B1E1A401143002806DB00F1E0200901C6
:1010000080F8001410BC704700F00F0000F1E020E1
:10101000090180F8141D10BC704700000CED00E0C1
:1010200000F00700064A11684FF6FF03194041EA35
:10103000002040F0FD7040F08060106070470000BC
:101040000CED00E01949B0F5007F0DD0086800F400
:10105000C060B0F5806F05D0086820F4C06040F42F
:101060008060086000207047086800F4C060B0F538
:10107000007FF7D0086820F4C06040F4007008607A
:101080000B483222006842430A48B2FBF0F0401C91
:1010900000E0401E4A6912F4806F01D00028F8D1A8
:1010A000486910F4806FDDD0032070470070004065
:1010B0002800002040420F000248006800F4C06091
:1010C000704700000070004030B402460020FE4B24
:1010D000B2F5003F35D0D96801F00301FB4CDFF8D1
:1010E000F0C3012953D0022968D003296ED0002112
:1010F000B2F5007F00F0688270DC102A00F0898170
:1011000070DC012A6CD0022A6BD0042A00F05381D3
:10111000082A14D1D3F8881001F0C001002900F08A
:101120006B81402900F06B81802900F06B81C02920
:1011300005D1D3F8901011F0020F00D0100330BC8D
:101140007047D3F8901001F44071B1F5807F0CD056
:10115000B1F5007F12D0B1F5407FF0D1196811F4DC
:10116000003FECD0DB4830BC7047D3F8901011F052
:10117000020FF8D04FF4004030BC7047D3F8941001
:1011800011F0020FF8D04FF4FA4030BC70471968E4
:1011900011F0020F10D0196811F0080F03D0196870
:1011A00001F0F00104E0D3F8941001F47061090932
:1011B000090954F821109BE7002199E7196811F4F7
:1011C000806F01D0614693E7002191E7196811F41F
:1011D000003F01D0C0498BE7002189E722E001E010
:1011E000A7E0C7E0202A7DD0402A00F0B781802AFE
:1011F00000F0CC81B2F5807FC7D1D3F8881001F41C
:101200004031002900F0DA81B1F5803F00F0D9814A
:10121000B1F5003FB9D1196811F4806FB5D06046BF
:1012200030BC7047B2F5804F7DD00DDCB2F5806FD9
:1012300000F0F481B2F5006F2CD0B2F5805F2ED0B3
:10124000B2F5005FECD10CE0B2F5004F00F0108277
:10125000B2F5803F68D0B2F5802F02D0B2F5002FF2
:10126000DED1D3F8882002F04062B2F1806F42D024
:10127000B2F1006F22D0B2F1406FD1D1196811F0F4
:10128000020FCDD0186810F0080F0DD0186800F0CC
:10129000F0000EE030BC4FF4006002F0E3B830BC68
:1012A0004FF4805002F0DEB8D3F8940000F4706080
:1012B0000009000954F8200030BC70471A6812F089
:1012C000007FF9D0DA6812F4801FF5D0D868C0F337
:1012D00006204843D968C1F30211491CB0FBF1F064
:1012E000D96800E0B9E0C1F34151491C4900B0FBA5
:1012F000F1F030BC70471A6812F0006FF9D01A692B
:1013000012F4801FF5D01869C0F306204843D9684D
:10131000C1F30211491CB0FBF1F01969C1F341514D
:10132000491C490001E0BCE00DE1B0FBF1F030BC2C
:101330007047D3F8881001F0030171B101290FD073
:10134000022910D00329F2D1D3F8901011F0020F26
:10135000EDD04FF4004030BC704730BC00F074BC9E
:1013600030BC00F083BC196811F4806FF3D0604684
:1013700030BC7047D3F8881001F00C0171B104291A
:101380000FD0082910D00C29F2D1D3F8901011F009
:10139000020FEDD04FF4004030BC704730BC00F07D
:1013A00041BC30BC00F062BC196811F4806FF3D00E
:1013B000604630BC7047D3F8881001F0300171B13D
:1013C00010290FD0202910D03029F2D1D3F8901055
:1013D00011F0020FEDD04FF4004030BC704730BC2C
:1013E00000F020BC30BC00F041BC196811F4806FE3
:1013F000F3D0604630BC704730BC00F013BC30BC4A
:1014000000F034BC196811F4806FF3D0604630BC32
:101410007047D3F8881001F4407189B1B1F5807F2D
:1014200011D0B1F5007F11D0B1F5407FEFD1D3F8E5
:10143000901011F0020FEAD04FF4004030BC70471A
:1014400030BC00F0EFBB30BC00F010BC196811F4E8
:10145000806FF3D0604630BC7047D3F8881001F439
:10146000406189B1B1F5806F11D0B1F5006F11D035
:10147000B1F5406FEFD1D3F8901011F0020FEAD020
:101480004FF4004030BC704730BC00F0CBBB30BCE8
:1014900000F0ECBB196811F4806FF3D0604630BCEB
:1014A0007047D3F8882002F04052B2F1805F08D034
:1014B000B2F1005F2CD0B2F1405FF0D130BC00F04F
:1014C000D5BB1A680AE0000000100240743E000814
:1014D0000024F40060E31600006CDC0212F0006FE0
:1014E000DDD01A6912F0807FD9D01869C0F30620C8
:1014F0004843D968C1F30211491CB0FBF1F01969E6
:10150000C1F34161491C4900B0FBF1F030BC7047A8
:101510001A6812F0005FF9D05A6912F0807FF5D096
:101520005869C0F306204843D968C1F30211491C29
:10153000B0FBF1F05969C1F34161491C4900B0FBAE
:10154000F1F030BC7047D3F8880000F0004010B1D3
:1015500030BC00F08BBB30BC00F076BBD3F88810F9
:1015600001F4405161B1B1F5805F0CD0B1F5005F7D
:10157000E7D1196811F4806FE3D0604630BC704742
:1015800030BC00F04FBB30BC00F070BBD3F888100B
:1015900001F4404161B1B1F5804F0CD0B1F5004F7D
:1015A000ECD1196811F4806FE8D0604630BC704708
:1015B00030BC00F037BB30BC00F058BB30BC00F092
:1015C00031BB30BC00F052BBD3F8881001F440218D
:1015D00089B1B1F5802F11D0B1F5002F17D0B1F539
:1015E000402FE3D1D3F8901011F0020FDED04FF46A
:1015F000004030BC704730BC00F014BBD3F89410EE
:1016000011F0020FF5D04FF4FA4030BC7047196862
:1016100011F4806FF9D0604630BC7047D3F8881061
:1016200001F4401189B1B1F5801F11D0B1F5001F4F
:1016300017D0B1F5401FEFD1D3F8901011F0020F81
:10164000EAD04FF4004030BC704730BC00F0EABA3A
:10165000D3F8941011F0020FF5D04FF4FA4030BCDB
:101660007047196811F4806FF9D0604630BC70473C
:10167000D3F8881001F0804149B1B1F1804FF5D124
:10168000196811F4806FF1D030BC6046704730BCEF
:1016900000F0C8BA2DE9F84F04460025002620883E
:1016A000FC4F10F4006F0DD0606E68B3B0F5800F82
:1016B00030D0B0F5000F22D0B0F5400F00D001259A
:1016C0007DB32E46208810F4805F0DD0A06E48B305
:1016D000B0F1807F3CD0B0F1007F2DD0B0F1407FE1
:1016E00000D001259DB32E46206810F4003F6BD03A
:1016F0004FF00008B86D10F0805F39D042E0F86814
:1017000040F48030F860DBE70021201D01F030FF5D
:101710000546D5E7002104F1200001F0D9FF054678
:10172000CEE700E00DE0D7F88800616E20F44000BD
:101730000843C7F88800C5E7F86840F48030F860CF
:10174000D0E70021201D01F013FF0546CAE706E09F
:10175000002104F1200001F0BBFF0546C2E7D7F8E5
:101760008800A16E20F040700843C7F88800BBE7EE
:10177000B86D40F08050B865B86D00F080500090B2
:101780004FF00108DFF810A3DAF8000040F4807091
:10179000CAF80000FFF7F6F88146DAF8000010F406
:1017A000807F0CD1FFF7EEF8A0EB0900022801D9E9
:1017B000032504E0DAF8000010F4807FF2D025B1B0
:1017C0002E46B8F1010F42D045E0D7F8900000F462
:1017D0004070A8B1D4F88410814211D0D7F890009D
:1017E00020F44070D7F8901041F48031C7F8901081
:1017F000D7F8901021F48031C7F89010C7F8900006
:1018000010F0010F16D0FFF7BDF88146D7F8900011
:1018100010F0020F0ED141F2883AFFF7B3F8A0EBB7
:101820000900504501D9032504E0D7F8900010F0D5
:10183000020FF2D00DB12E46C3E7D7F89000D4F8CE
:10184000841020F440700843C7F89000B9E7B86DE1
:1018500020F08050B865207810F0010F07D0D7F83D
:101860008800A16B20F003000843C7F888002078A7
:1018700010F0020F07D0D7F88800E16B20F00C00C1
:101880000843C7F88800207810F0040F07D0D7F875
:101890008800216C20F030000843C7F888002078C9
:1018A00010F0080F07D0D7F88800616C20F0C00056
:1018B0000843C7F88800207810F0100F07D0D7F839
:1018C0008800A16C20F440700843C7F88800207895
:1018D00010F0200F07D0D7F88800E16C20F44060AA
:1018E0000843C7F88800208810F4007F07D0D7F895
:1018F0008800E16D20F440200843C7F88800208864
:1019000010F4806F07D0D7F88800216E20F44010C3
:101910000843C7F88800207810F0400F07D0D7F8A8
:101920008800216D20F440500843C7F888002078D3
:1019300010F0800F07D0D7F88800616D20F4404088
:101940000843C7F88800208810F4807F07D0D7F8B4
:101950008800A16D20F440300843C7F88800208833
:1019600010F4005F1AD0D7F88800E16E20F04060D4
:101970000843C7F88800E06EB0F1006F03D0B0F103
:10198000806F05D00AE0F86840F48010F86005E048
:101990000121201D01F0ECFD00B10646206810F485
:1019A000002F1AD0D7F88800216F20F0406008433C
:1019B000C7F88800206FB0F1006F03D0B0F1806FDE
:1019C00005D00AE0F86840F48010F86005E00121D5
:1019D000201D01F0CDFD00B10646206810F4802FD7
:1019E0001AD0D7F88800616F20F040600843C7F82C
:1019F0008800606FB0F1006F03D0B0F1806F05D048
:101A00000AE0F86840F48010F86005E00121201D2C
:101A100001F0AEFD00B10646208810F4804F1DD0C5
:101A2000D7F88800A16F20F040500843C7F888001D
:101A3000A06FB0F1805F03D0B0F1005F07D00DE080
:101A40000221201D01F094FD40B1064606E002216E
:101A500004F1200001F03CFE00B10646208810F49D
:101A6000004F07D0D7F88800E16F20F0804008438E
:101A7000C7F88800206810F4803F08D0D7F88800A5
:101A8000D4F8801020F000400843C7F888003046A2
:101A900000F004B8001002400070004018BCBDE81F
:101AA000E08F00002DE9F04704460D46002C17D0CA
:101AB000DFF85081D8F8000000F00700A84212D2E9
:101AC000D8F8000020F007002843C8F80000D8F834
:101AD000000000F00700A84205D00120BDE8F08713
:101AE0000120BDE8F0872078474F10F0010F42D069
:101AF0006068032807D002280CD090B1396811F42F
:101B0000806F2ED011E0396811F0007F0DD10120D7
:101B1000BDE8F087396811F4003F06D10120BDE827
:101B2000F087396811F0020F18D0B96821F003016D
:101B30000843B860FEF726FF0646B868616800F003
:101B40000C00B0EB810F16D041F28839FEF71AFF76
:101B5000801B484508D90320BDE8F0870120BDE877
:101B6000F0870120BDE8F087B868616800F00C00DC
:101B7000B0EB810FEAD1207810F0020F05D0B868E1
:101B8000A16820F0F0000843B860D8F8000000F029
:101B90000700A8420FD9D8F8000020F0070028431A
:101BA000C8F80000D8F8000000F00700A84202D0F2
:101BB0000120BDE8F087207810F0040F05D0B86848
:101BC000E16820F4E0600843B860207810F0080F66
:101BD00006D0B868216920F4605040EAC100B860BE
:101BE00000F044F8B968094AC1F30311515C01F0EF
:101BF0001F01C8400649086006480068BDE8F04774
:101C0000FFF790B90020024000100240643E000837
:101C100028000020200000200148006870470000D4
:101C20002800002000B5FFF7F7FF05498968054A3D
:101C3000C1F30221515C01F01F01C84000BD00004A
:101C400000100240A43E000800B5FFF7E5FF05497B
:101C50008968054AC1F3C221515C01F01F01C840E7
:101C600000BD000000100240A43E000830B4002275
:101C70000020DFF8A8C0DCF8081001F00C01DCF847
:101C80000C3003F00303264C264D002908D00C2904
:101C900001D1012B04D0042917D0082917D017E04F
:101CA000DCF8002012F0080F08D0DCF80020C2F3A6
:101CB00003121D4B53F8222029B109E0DCF89420CF
:101CC000C2F30322F5E7104602E0204600E0284672
:101CD0000C291CD1DCF80C0000F00300022818D0FD
:101CE000032818D01046DCF80C10C1F30211491C6F
:101CF000DCF80C20C2F306225043B0FBF1F0DCF814
:101D00000C10C1F34161491C4900B0FBF1F030BC3B
:101D100070472046E7E72846E5E70000001002404C
:101D20000024F400006CDC02743E00082DE9F84346
:101D30000446002C0ED0FD4EB06800F00C05F06893
:101D400000F00307207810F0100F73D0B5B10C2D00
:101D500003D004E00120BDE8F883012F0ED0A06974
:101D6000002871D0306840F001003060FEF70AFEB4
:101D70008046306810F0020F5DD06AE0306810F0E5
:101D8000020F01D0A06940B1206A316811F0080F3C
:101D900006D0316801F0F00107E00120BDE8F883CA
:101DA000D6F8941001F470610909884217D901F03E
:101DB0002DFD10B10120BDE8F883306840F0080027
:101DC00030603068216A20F0F000084330607068AD
:101DD000E16920F47F4040EA0120706018E030683B
:101DE00040F0080030603068216A20F0F0000843BD
:101DF00030607068E16920F47F4040EA0120706043
:101E000035B9206A01F002FD10B10120BDE8F88368
:101E1000FFF72CFFB168C64AC1F30311515C01F012
:101E20001F01C840C3490860C3480068FFF77AF83B
:101E30000028EBD137E0FEF7A5FDA0EB0800022853
:101E400003D90320BDE8F88315E0306810F0020FD5
:101E5000F1D0306840F0080030603068216A20F02E
:101E6000F000084330607068E16920F47F4040EA88
:101E70000120706017E0306820F001003060FEF74C
:101E800081FD8046306810F0020F0CD0FEF77AFD1D
:101E9000A0EB0800022802D90320BDE8F8833068CF
:101EA00010F0020FF2D1207810F0010F58D0082D59
:101EB0001CD00C2D01D1032F18D06068B0F5803FE5
:101EC0001DD0B0F5A02F1FD0306820F480303060D6
:101ED000306820F480203060606860B3FEF752FD07
:101EE0008046306810F4003F17D039E0306810F4B5
:101EF000003F35D0606870BB0120BDE8F8833068D2
:101F000040F480303060E7E7306840F48020306093
:101F1000306840F480303060DEE7FEF733FDA0EB40
:101F20000800642802D90320BDE8F883306810F463
:101F3000003FF2D014E0FEF725FD8046306810F433
:101F4000003F0DD0FEF71EFDA0EB0800642803D96A
:101F50000320BDE8F88303E0306810F4003FF1D1BE
:101F6000207810F0020F50D0042D11D00C2D01D18B
:101F7000022F0DD0E06880B3306840F4807030608C
:101F8000FEF700FD0746306810F4806F11D01CE0AA
:101F9000306810F4806F01D0E06838B17068217C3F
:101FA00020F0F85040EA016070602EE00120BDE8AA
:101FB000F883FEF7E7FCC01B022802D90320BDE826
:101FC000F883306810F4806FF3D07068217C20F0C3
:101FD000F85040EA0160706017E0FFE7306820F4D5
:101FE00080703060FEF7CEFC0746306810F4806FDA
:101FF0000BD0FEF7C7FCC01B022802D90320BDE8A6
:10200000F883306810F4806FF3D1207810F0080F57
:1020100038D06069D8B1D6F8940040F00100C6F815
:102020009400FEF7AFFC0746D6F8940010F0020FBC
:1020300028D1FEF7A7FCC01B022802D90320BDE867
:10204000F883D6F8940010F0020FF2D01AE0D6F818
:10205000940020F00100C6F89400FEF793FC0746B8
:10206000D6F8940010F0020F0CD0FEF78BFCC01BCA
:10207000022802D90320BDE8F883D6F8940010F0B6
:10208000020FF2D1207810F0040F75D04FF0000845
:10209000B06D10F0805F09D1B06D40F08050B06538
:1020A000B06D00F0805000904FF00108DFF88C9088
:1020B000D9F8000010F4807F1AD1D9F8000040F45C
:1020C0008070C9F80000FEF75DFC0746D9F80000F3
:1020D00010F4807F0CD1FEF755FCC01B022802D9FA
:1020E0000320BDE8F883D9F8000010F4807FF2D017
:1020F000A068012824D0052829D0D6F8900020F027
:102100000100C6F89000D6F8900020F00400C6F850
:102110009000A06841F2883978B3FEF733FC074697
:10212000D6F8900010F0020F1ED042E000100240DE
:10213000643E0008280000202000002000700040BD
:10214000D6F8900040F00100C6F89000E1E7D6F81C
:10215000900040F00400C6F89000D6F8900040F0DF
:102160000100C6F89000D4E7FEF70CFCC01B484500
:1021700004D90320BDE8F88322E005E0D6F89000FA
:1021800010F0020FF0D014E0FEF7FCFB0746D6F883
:10219000900010F0020F0CD0FEF7F4FBC01B484576
:1021A00002D90320BDE8F883D6F8900010F0020FA2
:1021B000F2D1B8F1010F03D1B06D20F08050B065BD
:1021C000A06AE8B302280AD00C2D7CD0306820F039
:1021D00080703060306810F0205F75D0B7E0F06834
:1021E000E26A00F003014FF0FF37914227D1226BE2
:1021F00000F07001521EB1EB021F20D1626B00F49F
:10220000FE41B1EB022F1AD1A16B00F40032072975
:1022100001D0012100E000218A4210D1A28F00F4F8
:10222000C00107EB5202B1EB425F08D194F84010B5
:1022300000F0C06007EB5101B0EB416F63D000E0EC
:102240009EE00C2D5CD0306810F0806F03D13068B8
:1022500010F0805F02D00120BDE8F883306820F0E4
:1022600080703060FEF78EFB0546306810F0007F0E
:102270000BD0FEF787FB401B022802D90320BDE8E4
:10228000F883306810F0007FF3D1216BE06A491EBB
:1022900040EA0110616BA28F090207EB520241EA8A
:1022A0004251084394F84010F26807EB510140EAAC
:1022B0004160A16B090940EA41403449114008439B
:1022C000F060306801E05EE03DE040F0807030603A
:1022D000F06840F08070F060FEF754FB0446306810
:1022E00010F0007F4CD1FEF74DFB001B022802D9F5
:1022F0000320BDE8F883306810F0007FF3D03FE0A2
:102300000120BDE8F883306810F0007F38D13068D4
:1023100040F080703060F06840F08070F060FEF750
:1023200031FB0446306810F0007F29D1FEF72AFB0C
:10233000001B022802D90320BDE8F883306810F0A2
:10234000007FF3D01CE0F06820F00300F060F0683C
:1023500020F4881020F08070F060FEF713FB044634
:10236000306810F0007F0BD0FEF70CFB001B02283A
:1023700002D90320BDE8F883306810F0007FF3D164
:102380000020BDE8F8830120BDE8F8838C809DF92A
:1023900070B50446002C04D094F87D00002610B1DE
:1023A00006E0012070BD84F87C60204600F0E4F86F
:1023B000204601F06DFA08B1012070BD022084F8BA
:1023C0007D00E068B8B1012817D0022817D000209E
:1023D000A168B1B1012916D0022917D0032918D05C
:1023E00000255E4B21685E4A994201D0914215D189
:1023F0005C49086014E00020EAE71020E8E72020AC
:10240000E6E70025EDE74FF48065EAE74FF4006565
:10241000E7E74FF4006540F00100E2E75249086049
:10242000E06940B32068984201D0904204D14FF453
:102430000060FEF749FE03E04FF48050FEF744FED3
:1024400000EB8000E16940004902B0FBF1F1474830
:10245000A0FB0120C0082062424202EB820201EB95
:102460004201082901D9401C2062206B042802D1B6
:10247000206A400820626068002863D0022861D08A
:10248000E06B012866D0002021680A68384B1A40AA
:102490000A60226B6168A36B1143626B1A4311439C
:1024A0000843616A28430843216908436169084376
:1024B000218C40EA015120680268114301602068C4
:1024C000416821F00F0121F46041416020684168BA
:1024D000A269E36A1143A26A1A431143416020686A
:1024E0008168244A11408160A16C206D226C0843F0
:1024F000E16C521E11430843616C491E40EA012100
:1025000020688268114381602068C1684FF2200210
:102510001140C160A16D606DE26D0843B4F86010B8
:102520000904521E41EA022101432068C268114396
:10253000C160C4F88060012084F87D0084F87C606C
:10254000002070BDE06B012802D04FF400709BE7C3
:10255000002099E74FF4007096E700000454014012
:10256000245401400054014000580140CDCCCCCC53
:1025700010C005FF0080F8FF30B5A9B004468821DF
:102580006846FDF771FE1A49206888422ED1002561
:10259000C014199500900320019002901020039020
:1025A00007200224CDE90404E003CDE90640684693
:1025B000FFF770F808B1FDF7BCFE0E4A116841B98B
:1025C0000D48036E43F400130366006E00F4001020
:1025D0002790491C22AB1160742083E831000D2044
:1025E000CDE9255022A90548FEF786F829B030BD6F
:1025F0000454014018000020001002400010004860
:1026000070B50446002906D02AB194F87D0001284F
:1026100003D0022070BD012070BD94F87C00012819
:1026200011D0012084F87C006166A4F86820A4F829
:102630006A200025C4F88050122084F87D00606B69
:10264000402802D003E0022070BDA16A21B1802899
:1026500005D81048A06704E00F48A06701E00F48C4
:10266000A067204601F036F90121204601F075F9F6
:10267000014620680269114301612068016811F474
:10268000803F03D1016841F48031016084F87C50BF
:10269000002070BD8B3900083F3A0008DB39000884
:1026A00070470000401EB0F1807F01D301207047C9
:1026B0004FF0E0214861044AF0201070002088614A
:1026C000072008610020704723ED00E07047704745
:1026D00070470000F0B490F83C20012A41D001245A
:1026E00080F83C40022280F83D2003685A68D3F805
:1026F00008C01D4D1D4EAB4201D0B34203D122F4A0
:1027000070024F683A4322F070020F683A435A60F1
:102710000268AA4218D0B2F1804F15D0A2F18043CE
:10272000B3F5806310D0A2F18043B3F500630BD002
:10273000A2F18043B3F5406306D0B24204D0A2F1C7
:102740008043B3F5A03304D12CF08003896819438A
:10275000916080F83D40002180F83C10F0BC0020E2
:102760007047F0BC02207047002C0140003401404B
:1027700010B50446002C03D094F83D0010B107E0DA
:10278000012010BD002084F83C00204600F022F813
:10279000022084F83D00211D206801F0D1F90120BC
:1027A00084F8480084F83E0084F83F0084F8400034
:1027B00084F8410084F8420084F8430084F844001F
:1027C00084F8450084F8460084F8470084F83D000A
:1027D000002010BD08B500680B49884212D10B4893
:1027E000816D41F010018165806D002200F01000C4
:1027F000009011463620FEF7DFFBBDE8084036208A
:10280000FEF7CCBB08BD00000010004000100240E5
:10281000704770B50446206801694FF0000511F05B
:10282000020F17D0C16811F0020F13D0E91E016129
:10283000012020772068806910F0030F03D0204624
:10284000FFF7E6FF05E0204600F0ACF8204600F078
:10285000AAF825772068016911F0040F18D0C16823
:1028600011F0040F14D06FF00401016102202077F1
:102870002068806910F4407F03D02046FFF7C8FF2E
:1028800005E0204600F08EF8204600F08CF8257711
:102890002068016911F0080F18D0C16811F0080F05
:1028A00014D06FF008010161042020772068C0690E
:1028B00010F0030F03D02046FFF7AAFF05E02046E3
:1028C00000F070F8204600F06EF825772068016966
:1028D00011F0100F18D0C16811F0100F14D06FF064
:1028E00010010161082020772068C06910F4407F42
:1028F00003D02046FFF78CFF05E0204600F052F899
:10290000204600F050F825772068016911F0010F8A
:1029100009D0C16811F0010F05D06FF0010101610C
:10292000204600F041F82068016911F0800F09D0BD
:10293000C16811F0800F05D06FF080010161204661
:10294000FFF7C5FE2068016911F4807F09D0C168D6
:1029500011F0800F05D06FF4807101612046FFF700
:10296000B5FE2068016911F0400F09D0C16811F06F
:10297000400F05D06FF040010161204600F015F8CE
:102980002068016911F0200F0BD0C16811F0200FF1
:1029900007D06FF0200101612046BDE87040FFF7CD
:1029A00097BE70BD7047704770477047FEE70000E4
:1029B0000148FEF747B80000400000200148FEF73C
:1029C00079B8000040000020806A0022816B002955
:1029D00000D08A63C16B01B18A6300F037BB00226B
:1029E00011F0010F4FF0280306D0422290F841C0A9
:1029F00033EA0C0C00D0F22211F0020F08D042F0A2
:102A0000440290F841C033EA0C0301D042F0B00216
:102A100011F4004F01D042F0B802102901D142F068
:102A20009002202901D142F02002402901D142F038
:102A300040020068016891430160704701688A693B
:102A400012F0020F01D000228A620068816911F041
:102A5000010F03D1816941F00101816170472DE9C6
:102A6000F041044694F84100282131EA0002206830
:102A70004FF000054FF0080104D0C16184F84050C8
:102A8000BDE8F0818269C2F30048826902F47E02E7
:102A9000170C8268C2F30902C36803F0FE06E368FC
:102AA000022B0DD04FF400412046FFF798FF84F829
:102AB00040503A4641462046FDF7C3FFBDE8F0814D
:102AC0004FF0060C07F006030CEAD21C63450FD149
:102AD000A36C5B1CA364A36C022BEFD1A564C16142
:102AE00084F8405041462046FDF7ABFFBDE8F08139
:102AF0004FF400412046FFF772FF84F84050324601
:102B000041462046FDF79DFFBDE8F08170B50446C3
:102B100094F84100002584F842503C4AE262658501
:102B2000626C11436164282823D0292821D02A28E7
:102B30001FD048F203012046FFF751FF94F84100EF
:102B4000602802D0202084F841006563206B304E5D
:102B5000A16B19B1112816D0212814D0E16B19B13D
:102B6000122831D022282FD02046BDE8704000F036
:102B70006DBA03212046FFF732FF282084F8410078
:102B800024486063E2E72068016811F4804F03D0B5
:102B9000016821F480410160A06BFDF796FD0128DA
:102BA0000DD0A06B866384F84050A06BFDF766FDE6
:102BB00000282AD0A06B816BBDE8704008472046F2
:102BC000BDE8704000F042BA2068016811F4004F7F
:102BD00003D0016821F400410160E06BFDF775FD51
:102BE00001280DD0E06B866384F84050E06BFDF760
:102BF00045FD002809D0E06B816BBDE870400847B7
:102C00002046BDE8704000F021BA70BD0000FFFF13
:102C1000C9290008DD2E000870B504461648E06298
:102C200000252563202084F8410084F84250656324
:102C300011F0040F11D02068406A616A0870606A60
:102C4000401C6062208D40B1401E2085608D401E7A
:102C50006085606C40F00400606448F20301204627
:102C6000FFF7BDFE21681020C86184F8405020465F
:102C7000FDF788FF70BD00000000FFFF2DE9F04167
:102C800004460D462268166894F841002027D76153
:102C9000212806D0292804D022280AD02A2808D0A2
:102CA0000EE048F201012046FFF799FE2120206343
:102CB00006E048F202012046FFF791FE2220206341
:102CC0002068416841F400414160206841683C4A05
:102CD000114041602046FFF7B1FE16F4804F0AD044
:102CE0002068016821F480410160A06B80B1006818
:102CF000406860850CE016F4004F09D02068016838
:102D000021F400410160E06B10B10068406860850B
:102D100015F0040F0FD025F004052068406A616AA1
:102D20000870606A401C6062208D20B1401E2085C2
:102D3000608D401E6085608D18B1606C40F00400AD
:102D40006064002684F842606663606C68B1616C00
:102D50002046FFF7DBFE94F84100282816D12946CB
:102D60002046BDE8F041FFF757BFE06A10F5803F0D
:102D70000ED0204600F028F81248E06284F8417036
:102D8000266384F840602046FDF7FCFEBDE8F08134
:102D900094F84100222809D084F84170266384F811
:102DA00040602046FEF7A5F8BDE8F08184F8417048
:102DB000266384F840602046FEF79AF8BDE8F0816B
:102DC00000E800FE0000FFFF70B5044620680168BF
:102DD000002584F8425011F4804F04D0016821F49A
:102DE0008041016006E011F4004F03D0016821F436
:102DF0000041016094F841102820292911D094F84D
:102E000041102A290CD184F841002220206302219C
:102E10002046FFF7E4FD84F840502046FEF768F8AE
:102E200070BD84F841002120206301212046FFF776
:102E3000D6FD84F840502046FEF75BF870BD0000D8
:102E40002DE9F04104460D4616462068816911F0CF
:102E5000100F3DD080694FF0000710F0200F4FF0A9
:102E600020080DD1B5F1FF3F05D0FDF78BFD801B8C
:102E7000A84220D8FDB12068806910F0200FF1D061
:102E800021681020C8612068C0F81C802046FFF728
:102E9000D5FD20684168104A11404160606C40F0E7
:102EA0000400606484F8418084F8427084F84070C3
:102EB0000120BDE8F081606C40F02000606484F87F
:102EC000418084F8427084F840700120BDE8F081B0
:102ED0000020BDE8F081000000E800FE2DE9F0418F
:102EE00004460E461746E56A94F84000012820D0B3
:102EF000012084F8400016F0200F06D017F0200FB4
:102F000003D031462046FFF7B9FE16F0100F38D037
:102F100017F0100F35D0618D102069B12168C8619C
:102F2000606C40F00400606435B3B5F1807F23D05D
:102F30006DE00220BDE8F08194F84110282902D10B
:102F4000B5F1007F04D094F84110292905D010E094
:102F500031462046FFF760FE59E015F5803F08D066
:102F60002168C8612046FFF769FD2046FFF72CFF66
:102F70004DE02168C8614AE0616C2046FFF7C6FD5C
:102F800045E016F0040F1AD017F0040F17D0608D2B
:102F900060B12068406A616A0870606A401C6062C3
:102FA000208D401E2085608D401E6085608D30BB69
:102FB00015F5803F2BD02046FFF706FF27E016F0DF
:102FC000080F07D017F0080F04D031462046FFF74E
:102FD00046FD1CE016F0020F19D017F0020F16D0B4
:102FE000608D68B1606A216800788862606A401C00
:102FF0006062608D401E6085208D401E208506E049
:10300000B5F1807F00D015B92046FFF7DDFE002026
:1030100084F84000BDE8F08170B4DDF80CC00068B1
:1030200044684FF48065084EC1F3090105EA5C5518
:1030300041EA024135431943AC4341EA0C012143C3
:10304000416070BC70470000FF63FF0310B590F84B
:1030500041200021602A05D0016380F84010FDF76F
:1030600031FD10BD202280F84120016380F840101E
:10307000FDF7E6FC10BD2DE9F0410446069F8846A9
:1030800016461D462068806938EA000016D00020E8
:10309000B04210D1B5F1FF3F05D0FDF773FCC01B66
:1030A000A8420DD865B12068806938EA000016D0C2
:1030B0000020B042EED00020BDE8F0810120E7E71B
:1030C000606C40F020006064202084F84100002003
:1030D00084F8420084F840000120BDE8F08101201E
:1030E000E7E700002DE9F04104460D46164620684A
:1030F000806910F0040F36D100274FF020083246C7
:1031000029462046FFF79CFE10B10120BDE8F08162
:103110002068806910F0200F1AD02068816911F0B2
:10312000040F04D0218D11B10020BDE8F081C0F85A
:103130001C8020684168134A11404160676484F82C
:10314000418084F8427084F840700120BDE8F0812D
:10315000FDF718FC801BA84208D83DB120688069A3
:1031600010F0040FCBD00020BDE8F081606C40F07F
:103170002000606484F8418084F840700120BDE83C
:10318000F081000000E800FE70B504460D461646CA
:103190002068806910F0200F12D13246294620465F
:1031A000FFF74EFE08B1012070BDFDF7EBFB801B61
:1031B000A84207D835B12068806910F0200FECD004
:1031C000002070BD606C40F020006064202084F816
:1031D0004100002084F8420084F84000012070BDC6
:1031E00070B504460D4616462068806910F0020F3F
:1031F00015D1324629462046FFF722FE08B10120AC
:1032000070BDB5F1FF3F05D0FDF7BCFB801BA842A8
:1032100007D835B12068806910F0020FE9D000208E
:1032200070BD606C40F020006064202084F8410094
:10323000002084F8420084F84000012070BD0000A6
:1032400010B58AB024216846FDF70EF830482F4C9F
:103250000460FDF793F908B172B6FEE7002004217F
:10326000CDE9000102900390024604906946284887
:10327000FDF7A6F808B172B6FEE74FF480620021B0
:103280002348FDF77BF808B172B6FEE710226946C5
:103290001F48FDF795F808B172B6FEE7002210212D
:1032A0001B48FDF749F808B172B6FEE71948816D71
:1032B00041F000518165206840F0040020602068E2
:1032C00040F470602060206840F04000206020687A
:1032D00040F480202060206840F07060206020680A
:1032E00040F400002060206840F001002060206869
:1032F00040F48030206000210548FDF78BF9102153
:103300000348FDF787F90AB010BD000000740040C3
:103310002C0000200010024070B586B014216846D1
:10332000FCF7A2FF1F48C16C41F01001C164C16CE1
:1033300001F010010591C16C41F08001C164C16CC4
:1033400001F080010591C16C41F00101C164C16CC3
:1033500001F001010591C16C41F00201C164C06C32
:10336000114E00F002000590012208213046FDF7C1
:1033700002FB01240820CDE90004002569463046FF
:10338000CDE90245FDF7B8F902200094CDE9010529
:103390000D20CDE9035069464FF09040FDF7ACF9A0
:1033A00006B070BD0010024000100048124810B571
:1033B000104901601149416000210122C0E9021257
:1033C000016141618161C1610162FDF77CFB08B16E
:1033D00072B6FEE700210848FDF7DAFA08B172B6C6
:1033E000FEE700210448FDF700FB002801D072B67B
:1033F000FEE710BD00540040400000205D3E30203C
:10340000144810B512490160002101634022416057
:10341000C0E90D21C163816001610F4A4161C0E9CA
:103420000612C1604162816208220264C162012207
:10343000C0E91121C16401654165C0E91612016648
:10344000FEF7A6FF002801D072B6FEE710BD00000F
:10345000045401408C00002000770100FEE7FEE7E5
:10346000704700008446002000223E4BBCF5006FF0
:1034700003D0BCF5805F09D010E0D3F8882002F4B7
:103480004002B2F5400F09D1374807E0D3F8882051
:1034900002F04072B2F1407F00D1344800283FD1A1
:1034A000B2F5000F20D0B2F1007F1DD09AB3B2F573
:1034B000800F02D0B2F1807F32D11A6812F0005F23
:1034C0002ED05A6912F4803F2AD0D868C0F3021077
:1034D000401CB1FBF0F15869C0F30622586910F4A2
:1034E000003F3AD0112039E01A6812F0007F17D05F
:1034F000DA6812F4803F13D0D868C0F30210401C81
:10350000B1FBF0F1D868C0F30622D86810F4003F90
:1035100002D0112001E004E007205143B1FBF0F09C
:1035200070471A6812F0006FFAD01A6912F4803FDF
:10353000F6D0D868C0F30210401CB1FBF0F1186956
:10354000C0F30622186910F4003F01D0112000E0FA
:1035500007205143B1FBF0F0704707205143B1FB06
:10356000F0F07047001002400080BB0068FF1F00B1
:103570002DE9F041054688460024544EF06810F0CD
:10358000030F28680ED0F16801F00301814207D1D2
:1035900030B1F0686968C0F30210401C884229D03D
:1035A000012427E0012806D002280AD003280ED0E3
:1035B0000124B4B11EE0316811F0020FF9D10124E9
:1035C000F7E7316811F4806FF3D10124F1E7316836
:1035D00011F4003FEDD1316811F4802FE9D10124BD
:1035E000E7E7F1686A6821F07301521E41EA0211AF
:1035F0000843F060002C66D1306820F080603060B5
:10360000FDF7C0F90746306810F0006F0AD0FDF7EB
:10361000B9F9C01B022801D9032403E0306810F077
:10362000006FF4D17CBBB8F1000F1ED04FF0FF301B
:10363000B8F1010F28D0A9682A7D090200EB5200D9
:1036400041EA4060316921F4FE4121F0C061084344
:103650003061306840F080603060FDF793F90746D4
:10366000306810F0006F1ED028E0A868E9680002FA
:10367000090940EA4140316921F4FE4121F4003159
:1036800008433061E5E71EE0A9682A8A090200EBD9
:10369000520041EA4050316921F4FE4121F4C00159
:1036A00008433061D5E7FDF76DF9C01B022801D949
:1036B000032403E0306810F0006FF4D01CB93069C7
:1036C000A969084330612046BDE8F081001002403E
:1036D0002DE9F0410546884600244B4EF06810F075
:1036E000030F28680ED0F16801F00301814207D171
:1036F00030B1F0686968C0F30210401C884229D0DC
:10370000012427E0012806D002280AD003280ED081
:103710000124B4B11EE0316811F0020FF9D1012487
:10372000F7E7316811F4806FF3D10124F1E73168D4
:1037300011F4003FEDD1316811F4802FE9D101245B
:10374000E7E7F1686A6821F07301521E41EA02114D
:103750000843F060002C54D1306820F08050306075
:10376000FDF710F90746306810F0005F0AD0FDF74A
:1037700009F9C01B022801D9032403E0306810F0C6
:10378000005FF4D19CBBB8F1000F1BD0A8682A7C65
:103790004FF0FF31000201EB520140EA41607169D4
:1037A00021F4FE4121F0C06108437061306840F0AF
:1037B00080503060FDF7E6F80746306810F0005F93
:1037C0000ED019E0A868E9680002090940EA414002
:1037D000716921F4FE4121F4003108437061E5E78D
:1037E000FDF7D0F8C01B022802D9032404E008E04A
:1037F000306810F0005FF3D01CB970696969084344
:1038000070612046BDE8F08100100240F8B5054621
:1038100000241D4EB06D10F0805F02D0FDF74CFC0F
:103820000DE0B06D40F08050B065B06D00F080509C
:103830000090FDF741FCB16D21F08051B165B0F50C
:10384000007F04D0802D0AD94FF003040DE0802DB5
:103850000BD9A02D01D9022407E0012405E001D1F4
:10386000022402E0702D00D101240848016821F0F3
:10387000070121430160006800F00700A04201D069
:103880000120F8BD0020F8BD0010024000200240D9
:103890000F4941F658320968B1FBF2F18900002363
:1038A0000268D2F800C02CF4803CC2F800C039B1E4
:1038B000491E0268126812F4803FF8D1184670471A
:1038C000D0F8801041F04001C0F880100323F5E7E4
:1038D0002800002035E0426B402A01D1836A6BB199
:1038E000802A12D8426E1378521C426692F800C0A9
:1038F00043EA0C23521C4266CB611DE0426E1278F3
:10390000CA61416E491C416616E0426E1378521C32
:10391000426692F800C043EA0C23521C426692F8B9
:1039200000C043EA0C43521C426692F800C043EACE
:103930000C63521C4266CB61B0F86A10491EA0F8B5
:103940006A1001684A6902F4E022B2F5A02F03D0A0
:10395000B0F86A20002ABED170470122012900D1A7
:103960000922016B4068082905D1032801D00128EC
:1039700001D142F01002032804D0022802D042F004
:103980000400704742F06000704710B50446B4F878
:103990006A00002810D0606E0178401C60660278D2
:1039A00041EA0221401C60662068C161B4F86A00E7
:1039B000401EA4F86A0010BD01212046FFF7CDFF8C
:1039C00001462068026922EA01010161012084F8B0
:1039D0007D002046FEF764FE10BD10B50446B4F825
:1039E0006A0000281AD0606E0178401C6066027878
:1039F00041EA0221401C6066027841EA0241401C13
:103A00006066027841EA0261401C60662068C1611C
:103A1000B4F86A00401EA4F86A0010BD01212046D7
:103A2000FFF79BFF01462068026922EA010101615C
:103A3000012084F87D002046FEF732FE10BD10B54F
:103A40000446B4F86A0000280CD0606E2168007843
:103A5000C861606E401C6066B4F86A00401EA4F83D
:103A60006A0010BD01212046FFF777FF014620685C
:103A7000026922EA01010161012084F87D002046EB
:103A8000FEF70EFE10BD7047FDF734BA10B596B0C4
:103A900044216846FCF7E8FB142111A8FCF7E4FB7D
:103AA0004FF40070FDF7CEFA08B172B6FEE70120C0
:103AB00000900004002401900A946846FEF736F94D
:103AC00008B172B6FEE70F2011900220CDE9120472
:103AD0000146149411A81594FDF7E4FF002801D0C5
:103AE00072B6FEE716B010BD0C48016841F47001D3
:103AF00001600B48016841F0010101600021816013
:103B0000026822F4102222F0A85202608214C260DD
:103B1000026822F4802202608161704788ED00E033
:103B20000010024010B50448FEF773FEBDE81040D7
:103B30000248FCF7EBBC0000100100202C00002024
:103B40002DE9F0030268284BDFF8A090DFF8A0C051
:103B5000284D294C98420AD0B0F1804F07D04845F3
:103B600005D0604503D0A84201D0A04203D122F085
:103B700070024E683243214E214FDFF88880984210
:103B800010D0B0F1804F0DD048450BD0604509D022
:103B9000A84207D0A04205D0B04203D0B84201D01D
:103BA000404505D122F44072D1F80CC04CEA020223
:103BB000D1F814C022F0800242EA0C0202608A6846
:103BC000C2620A688262984207D0A04205D0B04221
:103BD00003D0B84201D0404501D1096901630121F8
:103BE0004161BDE8F0037047002C01400004004033
:103BF00000080040000C004000340140004001403B
:103C00000044014000480140FEE700000EB5FDF70A
:103C100079F9FFF73BFFFFF77FFBFFF711FBFFF79A
:103C2000C5FBFFF7EDFB0024884800940194864D06
:103C30000294C0E900544FF6FF71C0E9024184616B
:103C4000FEF796FD08B172B6FEE7009469467F481C
:103C50000294FEF73FFD08B172B6FEE77C48816D25
:103C600041F0100181650320A862FF20E8626868C6
:103C700040F020006860286840F00100286036208D
:103C8000FDF78CF94A20FDF789F970480A240123D1
:103C9000704A9421D0380094FDF728F86D4A6B489B
:103CA0000123921E9521D0380094FCF76DFF694ADC
:103CB00066480123521E9421D0380094FDF716F86F
:103CC000644A62480123921E9521D0380094FCF783
:103CD0005BFF604A5D480123921C9421D038009418
:103CE000FDF704F85B4A59480123921E9521D0380C
:103CF0000094FCF749FF574A54480223521D94216F
:103D0000D0380094FCF7F2FF524A504802230F3299
:103D10009421D0380094FCF7E9FF4E4A4B48012328
:103D2000921E9521D0380094FCF72EFF494A47484F
:103D30000223D21D9421D0380094FCF7D7FF454AC6
:103D400042480123921E9521D0380094FCF71CFFB5
:103D5000404A3E48022309329421D0380094FCF7AF
:103D6000C5FF3C4A39480123921E9521D038009462
:103D7000FCF70AFF374A354802230B329421D0382A
:103D80000094FCF7B3FF334A30480123921E95217B
:103D9000D0380094FCF7F8FE2E4A2C4802230D324E
:103DA0009421D0380094FCF7A1FF2A4A2748012328
:103DB000921E9521D0380094FCF7E6FE254A234850
:103DC000022311329421D0380094FCF78FFF214A4E
:103DD0001E480123921E9521D0380094FCF7D4FE92
:103DE0001C4A1A480223D21C9421D0380094FCF7B4
:103DF0007DFF184A15480123921E9521D038009462
:103E0000FCF7C2FE114884380068016841F4803133
:103E10000160104A0D480123521C9421D0380094AF
:103E2000FCF764FF0B4A09480123921E9521D03804
:103E30000094FCF7A9FE0749044803221331843893
:103E4000FEF7DEFBFEE7000000100040100100203E
:103E500000100240020000204FF04070E1EE100A16
:103E60007047000000000000000000000102030491
:103E700006070809A0860100400D0300801A06000D
:103E800000350C0040420F0080841E0000093D00F8
:103E900000127A000024F40000366E010048E801A8
:103EA000006CDC020000000001020304CC3E0008AC
:103EB000000000202C000000C4010008F83E0008AB
:103EC0002C00002094070000E00100080002010619
:103ED00006029E058020181D061C770E6004AF1E8A
:103EE0008100FFFF00000000010000001000000042
:083EF0000000000000093D0084
:040000050800018965
:00000001FF
