:020000040800F2
:10000000B8070020290200084F2D00089F23000890
:100010004D2D00082F030008A53200080000000045
:10002000000000000000000000000000293100086E
:100030003103000800000000512D00082B3100089A
:10004000430200084302000843020008430200087C
:10005000430200084302000843020008430200086C
:10006000430200084302000843020008430200085C
:10007000430200084302000843020008430200084C
:10008000430200084302000843020008430200083C
:10009000430200084302000843020008430200082C
:1000A000430200084302000843020008430200081C
:1000B000430200084302000843020008AD23000881
:1000C000A12300084302000843020008430200087D
:1000D00043020008430200084302000843020008EC
:1000E00043020008430200084302000843020008DC
:1000F00043020008430200084302000843020008CC
:1001000043020008430200084302000843020008BB
:100110004302000843020008C931000843020008F6
:10012000430200084302000843020008430200089B
:10013000430200084302000843020008430200088B
:10014000430200084302000843020008430200087B
:10015000430200084302000843020008430200086B
:10016000430200084302000843020008430200085B
:100170004302000843020008430200080000000098
:10018000430200084302000800F002F800F03CF8C7
:100190000AA090E8000C82448344AAF10107DA45E2
:1001A00001D100F031F8AFF2090EBAE80F0013F0F8
:1001B000010F18BFFB1A43F0010318471433000066
:1001C00034330000103A24BF78C878C1FAD85207F7
:1001D00024BF30C830C144BF04680C6070470000C1
:1001E0000023002400250026103A28BF78C1FBD840
:1001F000520728BF30C148BF0B6070471FB503F0DE
:100200003DF91FBD10B510BD00F058F81146FFF7BD
:10021000F5FF03F059F800F076F803B4FFF7F2FFAA
:1002200003BC00F07DF800000948804709480047FA
:10023000FEE7FEE7FEE7FEE7FEE7FEE7FEE7FEE796
:10024000FEE7FEE704480549054A064B70470000F3
:100250008D31000889010008B8010020B80700208E
:10026000B8030020B80300204FF0000200B5134689
:1002700094469646203922BFA0E80C50A0E80C50C6
:10028000B1F12001BFF4F7AF090728BFA0E80C5077
:1002900048BF0CC05DF804EB890028BF40F8042B70
:1002A00008BF704748BF20F8022B11F0804F18BFDD
:1002B00000F8012B7047704770477047754600F093
:1002C0002BF8AE4605006946534620F007008546E8
:1002D00018B020B5FFF7B6FFBDE820404FF000068C
:1002E0004FF000074FF000084FF0000B21F007011E
:1002F000AC46ACE8C009ACE8C009ACE8C009ACE861
:10030000C0098D46704710B50446AFF30080204603
:10031000BDE81040FFF781BF00487047580100203A
:1003200001491820ABBEFEE7260002007047FEE739
:10033000704772B6FEE7704770B54379012B15D050
:10034000012444710223037103681D6801F0100148
:100350004FF47C668E4042F04002B5438A4015431C
:100360001D60047100214171084670BD022070BDFE
:1003700070B54379012B15D0012444710223037118
:1003800003681D6801F010014FF47C668E4042F056
:100390008002B5438A4015431D60047100214171FC
:1003A000084670BD022070BD2DE9F0470446407933
:1003B00090460E4601280BD04FF0010984F80590B5
:1003C00002202071316808F01005042903D045E0AF
:1003D0000220BDE8F08700F09DFA07465FEA0800BA
:1003E0004FF0030805D01CE000F094FAC01B012870
:1003F0000FD82068406B0004F6D4012000F038F9D3
:100400002168B069086416E000F084FAC01B012876
:1004100007D9206940F00800206184F80480032097
:10042000D7E72068406B0028EEDB012000F020F9C0
:100430002168B06948642068816C40F2FF32AA40AC
:100440009143F269AA40114381642168C86CFF227C
:10045000AA409043326AAA401043C8643069012818
:1004600008D12268916B1F20A84081437069A84081
:10047000084390632268D16B0720A8408143B3688A
:1004800030681843F3681843A8400843D0632068D5
:1004900001684FF48042AA409143016022681068CD
:1004A00040F6FC71A94088437168A940014311607E
:1004B00020680168C022AA409143016084F804903A
:1004C0000020607185E7704770B5044600680168D8
:1004D0004FF00405890411D5416B89040ED52571AF
:1004E000216941F001012161E9024163206801684D
:1004F00021F4805101602046FFF7E5FF2068016884
:10050000890014D5416B890011D52571216941F00D
:10051000020121614FF0005141632068016821F020
:10052000805101602046BDE87040FFF704BF70BDF8
:1005300070B5040003D02079002510B105E001203A
:1005400070BD6571204600F007F80220207125611A
:1005500001202071002070BD10B586B00446142122
:100560006846FFF781FE15492068884223D1144868
:10057000816D41F000518165816D01F0005105915F
:10058000C16C41F00101C164C06C694600F001001A
:1005900005903020009003200190002002904FF041
:1005A000904000F077F800221146362000F086FCDB
:1005B000362000F075FC06B010BD0000007400404D
:1005C0000010024070B54279012A14D00122427114
:1005D0000223037103681D6801F0100602FA06F495
:1005E00025431D60002901680B6806D0C3F38343CF
:1005F000012B0AD00DE0022070BDC3F38303012B51
:1006000007D14B6843F0010302E04B6843F002035B
:100610004B60027100214171084670BD10B590F821
:1006200025100024022903D00421C16301241AE00B
:1006300001680A6822F00E020A6001680A6822F066
:1006400001020A6090F84410036C01F01C020121C1
:1006500001FA02F25A6080F82510002180F8241077
:10066000816B01B18847204610BD90F82500704786
:1006700070B5044600F04EF90546601C02D00448EF
:100680000078044400F046F9401BA042FAD370BD44
:10069000180000202DE9F04FDFF83492002309F113
:1006A000040A012403250AF1040B87B00F270BF17C
:1006B000040E04E104FA03F632407CD0D1F804C001
:1006C000BCF1010F08D0BCF1020F05D0BCF1110F35
:1006D00002D0BCF1120F29D1D0F808C0CDF800C06B
:1006E0004FEA430C05FA0CF8CDF80CC0DDF800C059
:1006F0002CEA080CCDF800C0D1F80C80DDF80CC055
:1007000008FA0CF8DDF800C048EA0C08C0F80880C8
:10071000D0F8048091F804C028EA0608CCF3001C45
:100720000CFA03FC4CEA080CC0F804C0D1F80480B1
:100730006FEA080C5FEA8C7C09D1D0F82CC02CEA57
:10074000060CC8F3C0069E4046EA0C06C662D0F806
:100750000CC04FEA430805FA08F62CEA060CCDF85F
:10076000148002968E6806FA08F646EA0C06C66001
:100770004E68022E01D0122E15D1DE0800EB86063F
:100780000396366A4FEA437C4FEADC6807FA08FCB6
:1007900026EA0C06D1F810C00CFA08FC4CEA060C4C
:1007A000039EC6F820C00668DDF808C026EA0C06DD
:1007B00091F804C000E081E0DDF814800CF0030C37
:1007C0000CFA08FC4CEA060CC0F800C04E68F600B3
:1007D00074D5404ED6F860C04CF0010CC6F860C02D
:1007E000366E23F0030C06F0010600963A4E66447E
:1007F0000296D6F808C09E074FEA167807FA08F660
:100800002CEA060CB0F1904F04D0344EB04203D124
:1008100001261BE0002619E0314EB04201D102262C
:1008200014E0304EB04201D103260FE02E4EB0420C
:1008300001D104260AE02D4EB04201D1052605E083
:100840002B4EB04201D1062600E0072606FA08F634
:1008500046EA0C06DDF808C0CCF80860D9F800605C
:10086000CC46D1F8048096435FEAC83800D51643D9
:10087000CCF80060DAF80060D446D1F804809643E2
:100880005FEA883800D51643CCF80060DBF80060DA
:10089000DC46D1F8048096435FEAC82800D51643A9
:1008A000CCF80060DEF80060F446D1F8048096438E
:1008B0005FEA882800D51643CCF800605B1C0A6804
:1008C00032FA03F67FF4F6AE07B000F013B800007A
:1008D00000040140001002400000014000040048F4
:1008E00000080048000C00480010004800140048B0
:1008F0000018004830BCBDE8C08F426921EA0203FD
:100900000A4043EA0241816170470AB18161704740
:10091000816270470148806870470000180000201D
:1009200090F84120202A24D190F84020012A20D09C
:10093000012280F84020242280F8412002681368B8
:1009400023F0010313600268136823F480531360DB
:10095000026813680B43136001680A6842F00102E1
:100960000A60202180F84110002180F840100846DC
:1009700070470220704790F84120202A22D190F839
:100980004020012A1ED0012280F84020242280F835
:1009900041200268136823F00103136002681368A2
:1009A00023F4706343EA0121116001680A6842F090
:1009B00001020A60202180F84110002180F84010D7
:1009C00008467047022070477047704730B403688C
:1009D0009A691968D243D40509D4CC43240606D4B5
:1009E000446C44F0010444644FF48074DC615305AA
:1009F0000AD4CB431B0607D4436C43F0080343647B
:100A000004684FF48063E36192050AD4C943090680
:100A100007D4416C41F00201416402684FF4007157
:100A2000D161416C11F00B0F02D030BC01F054BD0C
:100A300030BC7047026891691268436B002B00D08C
:100A4000184770477047000070B5040004D094F850
:100A50004100002510B106E0012070BD84F840502F
:100A6000204600F07BF9242084F8410020680168CA
:100A700021F0010101606068216820F07060086168
:100A80002068816821F400418160E0680128A06845
:100A900007D040F4044021688860E068022803D051
:100AA00006E040F40040F6E721684FF4006048603B
:100AB00020684168114A114341602068C16821F4EF
:100AC0000041C160D4E904010843A16940EA012062
:100AD0002168C860D4E907010843216808602068DC
:100AE000016841F0010101606564202084F8410043
:100AF000256384F84250002070BD00000080000291
:100B0000704700002DE9F84F044690F84100DDF8E9
:100B100028A01F4690468B4620287ED194F840009E
:100B200001287AD0012084F84000FFF7F3FE064642
:100B3000012200901923D103204601F048FFE0BBB9
:100B4000222084F84100102084F8420000256564CA
:100B5000C4F8248067856563618D3148FF274FF0B5
:100B600080784FF00079FF2903D927853A46009015
:100B700039E0618D218500903AE05946204601F028
:100B8000FBFE13E001F050FFB8B92068406A616ACB
:100B90000870606A401C6062208D401E80B2208513
:100BA000618D491E6185618D01B168B1608D3246EC
:100BB000002851462046E5D100E002E001F076FF32
:100BC000D0B1012000F030B85346002280212046E9
:100BD000009601F0FCFE0028F3D1608DFF2804D9B7
:100BE00027853A4600954346C7E7608D20850095E6
:100BF00094F828204B46C0E721682020C86121686E
:100C00004A68084B1A404A6084F8410084F8425010
:100C100084F840500020D5E7FFE70220D2E700002B
:100C20000024008000E800FE18BCBDE8E08F000052
:100C30002DE9F84F044690F84100DDF828A01F4642
:100C400090468B4620287ED194F8400001287AD027
:100C5000012084F84000FFF75DFE06460122009067
:100C60001923D103204601F0B2FEE0BB212084F815
:100C70004100102084F8420000256564C4F82480F7
:100C800067856563618D3148FF274FF080784FF0AD
:100C90000079FF2903D927853A46009039E0618D14
:100CA000218500903AE05946204601F065FE13E0A8
:100CB00001F022FFB8B9606A216800788862606A32
:100CC000401C6062608D401E6085208D401E80B299
:100CD0002085618D01B168B1608D32460028514692
:100CE0002046E5D100E002E001F0E0FED0B10120B5
:100CF00000F030B85346002280212046009601F0D3
:100D000066FE0028F3D1608DFF2804D927853A4676
:100D100000954346C7E7608D2085009594F828200C
:100D20004B46C0E721682020C86121684A68084B0B
:100D30001A404A6084F8410084F8425084F84050D8
:100D40000020D5E7FFE70220D2E700000020008066
:100D500000E800FE18BCBDE8E08F000010B5A8B0A8
:100D60000446142122A8FFF77FFA88216846FFF77E
:100D70007BFA1F492068884238D1402000908001CA
:100D80001490684600F0F8FA08B1FFF7D2FA194C4F
:100D9000E06C40F00200E064E06C22A900F0020088
:100DA0002790C0202290122023900020249003201E
:100DB0002590042026901048FFF76CFCA06D40F4AD
:100DC0000010A065A06D002200F4001027901146CD
:100DD0001F2000F073F81F2000F062F80022114677
:100DE000202000F06BF8202000F05AF828B010BD49
:100DF0000054004000100240000400487047704753
:100E00000248816802781144816070471800002010
:100E100010B50024032000F071F8002000F008F85D
:100E200008B1012401E000F025F8204610BD0000C3
:100E300070B50E4E05460024307898B14FF47A71A3
:100E4000B1FBF0F00A490968B1FBF0F001F02AF9B2
:100E500040B9102D06D200222946501E00F02EF86F
:100E6000756000E00124204670BD000018000020DD
:100E700024000020094808B5016E41F00101016617
:100E8000016E01F001010091816D41F08051816599
:100E9000806D00F08050009008BD000000100240FE
:100EA000002809DB00F01F02012191404009800069
:100EB00000F1E020C0F8001170470000F0B40E4BC4
:100EC0001B680C46C3F30223C3F10705042D00D9A8
:100ED0000425191D072901D2002300E0DB1E01268D
:100EE00006FA05F1491E214099409E40761E1640A3
:100EF0003143F0BC02F0D7B90CED00E0064900F038
:100F0000070208684FF6FF03184040EA0220034A30
:100F100010430860704700000CED00E00000FA0587
:100F20001649B0F5007F0868C0F3412009D00228B7
:100F300005D0086820F4C06040F48060086000209C
:100F400070470128FBD0086820F4C06040F40070AE
:100F500008600B483222006850430A4AB0FBF2F0A6
:100F6000401C00E0401E4A69520501D50028F9D115
:100F700048694005E3D50320704700000070004039
:100F80002400002040420F000248006800F4C060C6
:100F900070470000007000402DE9F05F0646002019
:100FA000E44A4FF4807C4FF400444FF4FA454FF488
:100FB0000079B6F5003F0DD0D168F02701F00301AC
:100FC000DFF87483DD4B012921D0022931D00329B8
:100FD00039D133E0D2F8901001F4407161450AD064
:100FE00049450ED0B1F5407F03D11168890300D582
:100FF000D34800F0A9B9D2F890108907F9D5204656
:10100000F7E7D2F894108907F3D52846F1E711687D
:10101000890718D51168090703D5116801F0F00197
:1010200003E0D2F8941007EA1111090958F82110C9
:101030000AE01168490506D5194605E011688903DB
:1010400001D5C04900E00021CB464FF4804E4FF45B
:1010500000694FF4805A5E457DD02ADC102E7BD08B
:1010600013DC012E79D0022E78D0042E77D0082EF2
:10107000BFD1D2F8881011F0C00171D0402970D0D2
:10108000802915D0C029B4D1B5E7202E6AD0402ED2
:1010900069D0802E68D06645ABD1D2F8881011F4A3
:1010A00040315DD0B1F5803F5BD0B1F5003FA0D1BC
:1010B00036E1764579D00ADCB6F5806F76D04E45BC
:1010C00028D0564528D0B6F5005F92D10AE0A64256
:1010D0006DD0B6F5803F6BD0B6F5802F02D0B6F557
:1010E000002F86D1D2F8883003F04063B3F1806FCF
:1010F0003BD0B3F1006F1CD0B3F1406F86D11168C3
:1011000089077FF57DAF106800070AD5106800F0E9
:10111000F0000AE0484600E0504600F018B901F03F
:1011200019BED2F8940007EA1010000958F8200000
:101130005FE713689B01FBD5D368DB02F8D5D06865
:10114000C0F306204143D068C0F30210401CB1FB3D
:10115000F0F0D1681AE0BCE043E01AE029E034E0A6
:1011600094E066E04AE09BE0A5E013681B01DFD550
:101170001369DB02DCD51069C0F306204143D06857
:10118000C0F30210401CB1FBF0F01169C1F34151F2
:1011900075E0D2F8881011F003017DD0012948D004
:1011A000022972D00329C3D125E735E0A1E0AFE0E1
:1011B0006DE0D2F8881011F00C0167D0042938D006
:1011C000082962D00C29B3D115E7D2F8881011F0A4
:1011D00030015BD0102978D0202956D03029A7D1F2
:1011E00009E7D2F8881011F440714FD061456CD0F6
:1011F00059454AD0B1F5407F9AD1FCE6D2F8881023
:1012000011F4406142D0B1F5806F5ED049453CD0C9
:10121000B1F5406F8CD1EEE6D2F8883003F0405340
:10122000B3F1805F06D0B3F1005F15D0B3F1405F3A
:10123000B9D14AE013681B0199D51369DB0196D532
:101240001069C0F306204143D068C0F30210401C6F
:10125000B1FBF0F0116910E013689B0087D553696A
:10126000DB0184D55069C0F306204143D068C0F348
:101270000210401CB1FBF0F05169C1F34161491CFF
:101280004900B0FBF1F0B4E606E049E04DE0D2F8E9
:10129000880010F0004F18D100F05EB800F0E6BAF8
:1012A000D2F8881011F440513FD051450DD0B1F51E
:1012B000005FE8D134E0D2F8881011F4404134D016
:1012C000714502D0A142DED12AE000F04AB800F018
:1012D000DFBAD2F8881011F4402126D0B1F5802F62
:1012E0003FF48FAEB1F5002F1AD0B1F5402FCAD11F
:1012F00081E6D2F8881011F4401116D0B1F5801FA4
:10130000EED0B1F5001F0BD0B1F5401FBBD172E696
:10131000D2F8881011F0804107D0B1F1804FB2D1DE
:1013200011684905AFD5184663E600F01FB800F014
:101330008BBA000000100240983400080024F4002A
:1013400060E31600006CDC0230BCBDE8C09F30BC1E
:10135000BDE8C05FFFF7E3BE30BCBDE8C05FFFF78C
:101360009DBF30BCBDE8C05FFFF7B1BF30BCBDE87A
:10137000C05FFFF7DCBF00002DE9F84F04460027EF
:101380000088E54D3E46010504F1200B1DD5606E39
:1013900078B1B0F5800F11D0B0F5000F04D0B0F5E2
:1013A000400F22D001270FE0E86840F48030E86069
:1013B0001BE00021201D01F03FFD03E00021584605
:1013C00001F0D0FD070010D03E462088C00426D58D
:1013D000A06EC0B1B0F1807F1AD0B0F1007F0DD007
:1013E000B0F1407F19D0012718E0D5F88800616E70
:1013F00020F440000843C5F88800E6E7E86840F4B8
:101400008030E86009E00021201D01F015FD03E0B7
:101410000021584601F0A6FD0746F7B13E46206878
:1014200080033AD5A86D4FF00008C00009D4A86D1C
:1014300040F08050A865A86D4FF0010800F0805082
:101440000090DFF8D8A2DAF8001041F48071CAF8F1
:101450000010FFF75FFA814610E0D5F88800A16E12
:1014600020F040700843C5F88800D8E7FFF752FA2B
:10147000A0EB0900022801D9032705E0DAF80000F3
:10148000C005F3D5002F7CD04FEA0706B8F1000F56
:1014900003D0A86D20F08050A8652078C00707D041
:1014A000D5F88800A16B20F003000843C5F8880038
:1014B0002078800707D5D5F88800E16B20F00C0074
:1014C0000843C5F888002078400707D5D5F888007C
:1014D000216C20F030000843C5F888002078000710
:1014E00007D5D5F88800616C20F0C0000843C5F826
:1014F00088002078C00607D5D5F88800A16C20F4B4
:1015000040700843C5F888002078800607D5D5F8D4
:101510008800E16C20F440600843C5F8880020880A
:10152000800507D5D5F88800E16D20F440200843F8
:10153000C5F888002088400507D5D5F88800216EB9
:1015400020F440100843C5F888002078400607D5ED
:10155000D5F88800216D20F440500843C5F8880074
:101560002078000607D5D5F88800616D20F440404A
:101570000843C5F888002088C00509D5D5F888003B
:1015800000E01CE0A16D20F440300843C5F888005D
:1015900020884FF0006780044FF080684FD5D5F861
:1015A0008800E16E20F040600843C5F88800E06ED6
:1015B000B8423CD1E86840F48010E8603FE0D5F8DC
:1015C000900010F4407015D0D4F88410814211D0EE
:1015D000D5F89000D5F8901020F4407041F4803197
:1015E000C5F89010D5F8901021F48031C5F890100E
:1015F000C5F89000C00710D0FFF78CF9074641F2FC
:10160000883906E0FFF786F9C11B494501D9032651
:101610003CE7D5F890008007F4D5D5F89000D4F8D1
:10162000841020F440700843C5F890002EE7404530
:1016300005D10121201D01F0FFFB00B10646206805
:10164000000317D5D5F88800216F20F040600843CB
:10165000C5F88800206FB84204D1E86840F48010D3
:10166000E86007E0404505D10121201D01F0E4FBC1
:1016700000B106462068400317D5D5F88800616F91
:1016800020F040600843C5F88800606FB84204D17C
:10169000E86840F48010E86007E0404505D101218A
:1016A000201D01F0C9FB00B10646208840041AD570
:1016B000D5F88800A16F20F040500843C5F8880095
:1016C000A06FB0F1805F03D0B0F1005F05D00AE0F9
:1016D0000221201D01F0B0FB03E00221584601F079
:1016E00041FC00B106462088000407D5D5F88800E3
:1016F000E16F20F080400843C5F888002068C003EF
:1017000007D555F8880FD4F8801020F00040084322
:101710002860304600F004B800100240007000401D
:1017200018BCBDE8E08F00002DE9F0470F4605002A
:1017300058D0404E306800F00700B84209D23068F7
:1017400020F0070038433060306800F00700B842EE
:1017500048D12878384CC0072CD06868032811D0AD
:10176000022812D0216898B1490500293ADAA16807
:1017700021F003010143A160FFF7CCF8804641F25C
:10178000883910E021688901EFE721688903ECE7D7
:101790008907EAE7FFF7BEF8A0EB0801494502D93F
:1017A0000320BDE8F087A068696800F00C00B0EB8A
:1017B000810FEFD12878800705D5A068A96820F0AF
:1017C000F0000843A060306800F00700B8420BD971
:1017D000306820F0070038433060306800F00700C0
:1017E000B84201D00120DCE72878400705D5A06881
:1017F000E96820F4E0600843A0602878000706D577
:10180000A068296920F4605040EAC100A06000F09F
:101810003FF8A168094AC1F30311515C01F01F01AF
:10182000C8400749086007480068BDE8F047FFF76F
:10183000FFBA000000200240001002408834000877
:10184000240000201C000020054806490068896823
:10185000054AC1F30221515C01F01F01C8407047E5
:101860002400002000100240C83400080548064942
:1018700000688968054AC1F3C221515C01F01F016B
:10188000C84070472400002000100240C8340008FF
:1018900070B52449002318468A68CC6812F00C02FF
:1018A00004F00306204C214D09D00C2A05D0042A4F
:1018B00032D0082A00D1284670BD012E10D10B6805
:1018C0001B0704D4D1F89430C3F3032302E00B6860
:1018D000C3F30313164E56F82330DAB10C2AEBD1BA
:1018E000C86800F00300022818D0032818D0184652
:1018F000CA68CB68C2F30212C3F306234343521CE7
:10190000B3FBF2F2C868C0F34160401C4000B2FB78
:10191000F0F070BD184670BD204670BD2046E7E768
:101920002846E5E7001002400024F400006CDC02C9
:10193000983400082DE9F84304006FD0FE4DA868E4
:1019400000F00C06E86800F003072078C00664D5B4
:1019500076B10C2E01D1012F0AD0A0690028286889
:101960007AD040F001002860FEF7D4FF80465DE0A9
:101970002868800702D5A0690028DED0216A28687F
:10198000000703D5286800F0F00004E0D5F89400C3
:10199000F02202EA1010814216D9084601F066FBD7
:1019A00000283BD1286840F0080028602868216A98
:1019B00020F0F000084328606868E16920F47F4067
:1019C00040EA0120686016E0286840F008002860BE
:1019D0002868216A20F0F000084328606868E169FF
:1019E00020F47F4040EA0120686026B9206A01F0B7
:1019F0003DFB0028D5D1FFF74BFFA968CF4AC1F3C3
:101A00000311515C01F01F01C840CD490860CD4869
:101A10000068FFF70DFA00287ED12EE0CAE000BF73
:101A2000FEF778FFA0EB0800022876D82868800728
:101A3000F6D5286840F0080028602868216A20F060
:101A4000F000084328606868E16920F47F4040EABC
:101A50000120686011E0FFE720F001002860FEF738
:101A600059FF804606E000BFFEF754FFA0EB0800D8
:101A70000228DAD828688007F6D42078C00740D03A
:101A8000082E18D00C2E01D1032F14D06068B0F5A9
:101A9000803F17D0B0F5A02F286817D020F48030F1
:101AA0002860286820F4802028606068E0B1FEF794
:101AB00031FF804614E02868800322D56068002842
:101AC00078D01EE0286840F48030EDE740F48020B4
:101AD0002860F7E7FEF71EFFA0EB08006428A4D8F3
:101AE00028688003F6D50CE0FEF714FF804605E079
:101AF000FEF710FFA0EB0800642896D82868800342
:101B0000F6D4207880073BD5042E11D00C2E01D1BD
:101B1000022F0DD0E06801E092E1F1E00028286892
:101B20001ED040F480702860FEF7F4FE07460CE0FB
:101B3000286840050CD5E0680028C1D008E000BF47
:101B4000FEF7E8FEC01B022893D828684005F7D5A9
:101B50006868217C20F0F85040EA016068600FE07E
:101B600020F480702860FEF7D5FE074605E000BF30
:101B7000FEF7D0FEC01B0228B1D828684005F7D474
:101B80002078000729D560690028D5F8940012D084
:101B900040F00100C5F89400FEF7BCFE074604E0E3
:101BA000FEF7B8FEC01B022899D8D5F8940080072C
:101BB000F6D512E000E120F00100C5F89400FEF730
:101BC000A9FE074605E000BFFEF7A4FEC01B0228E1
:101BD00085D8D5F894008007F6D42078400766D5DC
:101BE000A86D0027C00008D4A86D40F08050A865FB
:101BF000A86D012700F08050009053480168C90586
:101C000012D40168814641F480710160FEF782FEC2
:101C1000804605E0FEF77EFEA0EB080002286FD8A4
:101C2000D9F80000C005F5D5A068012816D0052810
:101C3000D5F8900017D020F00100C5F89000D5F835
:101C4000900020F0040000BFC5F89000A06841F2A9
:101C50008839C0B1FEF75EFE80460FE0D5F89000EF
:101C600040F00100F0E740F00400C5F89000F5E70F
:101C7000FEF750FEA0EB0801494541D8D5F8900089
:101C80008007F5D50EE0FEF745FE804606E000BF72
:101C9000FEF740FEA0EB0801494531D8D5F8900089
:101CA0008007F5D41FB1A86D20F08050A865A06A08
:101CB00038B302280AD00C2E7ED0286820F080701D
:101CC0002860286810F0205F77D0AAE0E868E26A10
:101CD00000F0030191422BD1216B00F07002090149
:101CE0001039914224D1626B00F4FE41B1EB022F16
:101CF0001ED1A26B00F40031072A03D0012202E0BA
:101D00009DE089E00022914212D1A18F00F4C0022F
:101D100049084905A1F50011914209D194F84010F4
:101D200000F0C06049084906A1F1007181425CD011
:101D30000C2E41D0286809E00010024088340008C9
:101D4000240000201C0000200070004040017ED4D0
:101D50002868C0007BD4286820F080702860FEF7D7
:101D6000D9FD064605E000BFFEF7D4FD801B022822
:101D700065D828688001F7D4D4E90B016FF00F0211
:101D800002EB01110843A18F5204490802EB4151B3
:101D9000626B41EA0221084394F840104FF07E4202
:101DA000490802EB41610843A16B090940EA41403F
:101DB000E968284A114001E049E02EE00843E86064
:101DC000286840F080702860E86840F08070E86023
:101DD000FEF7A0FD044604E0FEF79CFD001B022870
:101DE0002DD828688001F7D52FE0286880012CD4F1
:101DF000286840F080702860E86840F08070E860F3
:101E0000FEF788FD044604E0FEF784FD001B02286F
:101E100015D828688001F7D517E0E86820F003009E
:101E2000E860E8680C490840E860FEF773FD044686
:101E300008E000BFFEF76EFD001B022802D9032058
:101E4000BDE8F88328688001F4D40020F8E7012079
:101E5000F6E700008C809DF9FFFFEEFE2DE9F041D2
:101E600004000CD094F87D00002620B984F87C6032
:101E7000204600F0D3F8204601F036F910B10120D9
:101E8000BDE8F081022084F87D00E06820B10128DF
:101E90000ED002280ED00020A2684FF400612AB1B3
:101EA000012A09D0022A0AD0032A0AD000250BE011
:101EB0001020F1E72020EFE74FF4806504E00D46A5
:101EC00002E00D4640F00100504B504A2768203395
:101ED000974201D09F4202D14C4F3F1F00E04C4F30
:101EE0003860E06918B32068904201D0984201D16F
:101EF000084601E04FF48050FFF74EF8E16900EB2F
:101F0000800040004902B0FBF1F10A22B1FBF2F07F
:101F1000B1FBF2F302FB13112062082901D9401C26
:101F20002062206B042802D1206A40082062606889
:101F30004FF40071E8B3022864D0E06B012800D0B0
:101F4000002120680268334B1A400260226B6068EF
:101F50001043D4E90D231A4310430843616A284310
:101F600008432169084361690843218C40EA015113
:101F70002068026811430160206841684EF20F0238
:101F80009143416021684868A2691043D4E90A235B
:101F90001A4310434860206881681F4A11408160DD
:101FA000A16C206D226C0843E16C521E1143084362
:101FB00000E027E0626C6FF0FF0101EB02221043AA
:101FC00022689368184390602068C2684FF220032B
:101FD0001A40C260D4E915021043E26D01EB022100
:101FE000B4F8602041EA024108432168CA681043FE
:101FF000C860C4F88060012084F87D0084F87C60AB
:1020000000203DE7E06B01289AD09AE70454014094
:102010000058014010C005FF0080F8FF10B5A8B0BF
:10202000044688216846FEF71FF91A49206888424D
:102030002ED1C0140090C00219900320089009907E
:1020400008200A9007200224CDE90B04E0030D903C
:102050006846FFF791F908B1FEF76BF90E4A11686F
:1020600041B90E48036E43F400130366006E00F49A
:1020700000102790491C11607420CDE92204002033
:10208000249025900D20269022A90548FEF702FBFA
:1020900028B010BD0454014014000020001002407C
:1020A0000010004810B5401EB0F1807F01D3012020
:1020B00010BD4FF0E02460610F21601701F0F3F8CC
:1020C0000020A06107202061002010BD70477047EC
:1020D00070470000F0B590F83C20012A39D0012467
:1020E00080F83C40022280F83D20026853689568E1
:1020F000194E1A4FB24201D0BA4204D123F4700CE7
:102100004B6843EA0C0323F0700C0B6843EA0C03A2
:1021100053600268B24210D0B2F1804F0DD0104B24
:102120009A420AD00F4B9A4207D00F4B9A4204D0E2
:10213000BA4202D00D4B9A4204D1896825F080033F
:102140001943916080F83D40002180F83C1008461A
:10215000F0BD0220F0BD0000002C01400034014021
:102160000004004000080040000C00400040014016
:1021700010B5040003D094F83D0010B107E0012031
:1021800010BD002084F83C00204600F023F8022017
:1021900084F83D00211D206801F024F8012084F816
:1021A000480084F83E0084F83F0084F8400084F83A
:1021B000410084F8420084F8430084F8440084F825
:1021C000450084F8460084F8470084F83D0000206C
:1021D00010BD000008B500680B49884212D10B48B9
:1021E000816D41F010018165806D002200F01000CA
:1021F000009011463620FEF761FEBDE8084036200B
:10220000FEF74EBE08BD0000001000400010024066
:10221000704770B50446006801694FF00005C94376
:10222000890715D4C168C943890711D4E91E016122
:1022300001202077206880698007204602D0FFF7C0
:10224000E7FF04E000F0A7F8204600F0A5F82577A6
:1022500020680169C943490717D4C168C9434907C0
:1022600013D46FF004010161022020772068806997
:1022700010F4407F204602D0FFF7CAFF04E000F0D0
:102280008AF8204600F088F8257720680169C9435C
:10229000090716D4C168C943090712D46FF00801B1
:1022A0000161042020772068C0698007204602D0A1
:1022B000FFF7AEFF04E000F06EF8204600F06CF887
:1022C000257720680169C943C90617D4C168C94385
:1022D000C90613D46FF0100101610820207720682F
:1022E000C06910F4407F204602D0FFF791FF04E060
:1022F00000F051F8204600F04FF82577206801697A
:10230000C943C90708D1C168C943C90704D1891E97
:102310000161204600F041F820680169C9430906BF
:1023200009D4C168C943090605D46FF08001016171
:102330002046FFF7CCFE20680169C943C90509D4CE
:10234000C168C943090605D46FF480710161204654
:10235000FFF7BCFE20680169C943490609D4C1687A
:10236000C943490605D46FF040010161204600F0E1
:1023700015F820680169C94389060BD4C168C943AF
:10238000890607D46FF0200101612046BDE8704046
:10239000FFF79EBE70BD7047704770477047FEE7FD
:1023A0000148FEF713BB00003C0000200148FEF787
:1023B00041BB00003C000020806A0021826B02B11A
:1023C0009163C26B02B1916300F0ECBA10B50022C8
:1023D000CC074FF0280306D090F84140422233EA60
:1023E000040400D0F2228C0707D590F8414042F057
:1023F0004402A34301D042F0B0020B0401D542F0E5
:10240000B802102904D0202905D0402906D007E0C1
:1024100042F0900204E042F0200201E042F040026B
:10242000006801689143016010BD01688A69D24368
:10243000920701D400228A6200688169C943C907F2
:1024400003D0816941F00101816170472DE9F041BC
:10245000044690F841002821814320684FF0000590
:102460004FF0080304D0C36184F84050BDE8F08108
:102470008169C1F300478169FE2202EA1146816841
:10248000C1F30902C168D4F80CE001F0FE014FF479
:10249000004CBEF1020F17D14FF0060E06F00606F3
:1024A0000EEAD21E76450ED1A16C491CA164A16C26
:1024B0000229DBD1A564C36184F840503946204627
:1024C000FEF783FAD2E70E4661462046FFF77EFF0D
:1024D00084F840503246F1E770B5044690F8410068
:1024E000002584F84250364AE2626585626C0A43F0
:1024F000626428281FD029281DD02A281BD048F222
:1025000003012046FFF762FF94F84100602802D0E3
:10251000202084F841006563206B2A4EA16B19B11D
:10252000112812D0212810D0E16BE9B3122824D051
:10253000222822D03EE003212046FFF747FF282033
:1025400084F8410020486063E6E720680168490498
:1025500003D5016821F480410160A06BFEF785F886
:10256000012827D0A06B866384F84050A06BFEF74B
:1025700055F8002823D0A06B18E0206801680904F2
:1025800003D5016821F400410160E06BFEF76DF8AE
:1025900001280FD0E06B866384F84050E06BFEF7B3
:1025A0003DF800280BD000E004E0E06B816BBDE853
:1025B000704008472046BDE8704000F0F3B970BD98
:1025C0000000FFFFB92300085928000870B5044631
:1025D0001648E06200252563202084F8410084F835
:1025E0004250C8436563400711D42068406A616A5D
:1025F0000870606A401C6062208D40B1401E2085DA
:10260000608D401E6085606C40F00400606448F29C
:1026100003012046FFF7DAFE21681020C86184F824
:1026200040502046FEF76CFA70BD00000000FFFF2E
:102630002DE9F04102680446156890F841000E4605
:102640002027D761212806D0292804D0222809D0A4
:102650002A2807D00DE048F201012046FFF7B6FE18
:10266000212005E048F202012046FFF7AFFE2220BC
:1026700020632068416841F400414160206841685E
:10268000354A114041602046FFF7CFFEE843410440
:1026900006D42068016821F480410160A06B07E046
:1026A000000409D42068016821F400410160E06B56
:1026B00010B1006840686085F04340070FD420687F
:1026C00026F00406406A616A0870606A401C606215
:1026D000208D20B1401E2085608D401E6085608D5C
:1026E00018B1606C40F004006064002584F842502A
:1026F0006563606C68B1616C2046FFF7EDFE94F88D
:102700004100282815D131462046BDE8F041FFF7A9
:102710005DBFE06A114EB0420DD0204600F020F8B7
:10272000E66284F84170256384F840502046FEF745
:10273000E7F9BDE8F08194F8410084F8417022285F
:10274000256384F84050204602D0FEF758FBF0E79E
:10275000FEF754FBEDE7000000E800FE0000FFFF7D
:1027600070B5044600680168002584F84250C943EA
:102770004A0403D4016821F4804104E0090403D42D
:10278000016821F40041016094F8411028202929B2
:1027900011D094F841102A290CD184F8410022204C
:1027A000206302212046FFF711FE84F840502046A6
:1027B000FEF724FB70BD84F8410021202063012135
:1027C0002046FFF703FE84F840502046FEF717FB33
:1027D00070BD00002DE9F0410446006890460E46A9
:1027E0008069C043C00633D4002520272068806953
:1027F000C043800615D5701CF8D0FEF78BF8A0EB0F
:102800000800B04201D8002EF0D154F8440F40F037
:10281000200044F804096770A57025700120BDE808
:10282000F08121681020C8612068C7612046FFF749
:10283000FCFD54F8440B4168064A11404160206891
:1028400040F0040044F820096777A5772577E5E78D
:102850000020E4E700E800FE2DE9F041C56A0446E7
:1028600090F840008846012826D0012084F84000D6
:102870006FEA0807B8066FEA020605D4B00603D46B
:1028800041462046FFF7D4FE3A49F8064FF08072E1
:1028900031D4F0062FD4638D102083B12168C86134
:1028A000606C40F0040060640DB195425ED1616CD3
:1028B0002046FFF711FE59E00220BDE8F08194F8B0
:1028C0004120282A02D1B5F1007F04D094F841209C
:1028D000292A05D00CE041462046FFF777FE45E067
:1028E0008D4205D02168C8612046FFF79EFD3AE081
:1028F0002168C8613AE0780715D4700713D4608D59
:1029000060B12068406A626A1070606A401C606250
:10291000208D401E2085608D401E6085608D28BB07
:102920008D4220D122E0380706D4300704D4414636
:102930002046FFF78BFD19E0B80717D4B00715D470
:10294000608D68B1606A216800788862606A401CA6
:102950006062608D401E6085208D401E208505E0F0
:10296000954200D015B92046FFF7FAFE002084F802
:102970004000A2E70000FFFFF0B50568059C68680D
:102980004FF48066064FC1F3090106EA545641EA46
:1029900002413E431943B043214308436860F0BD00
:1029A000FF63FF0310B590F841200021602A05D095
:1029B000016380F84010FEF745F810BD202280F832
:1029C0004120016380F84010FDF7FEFF10BD2DE9A6
:1029D000F0411D4617460E460446DDF8188008E013
:1029E000681C06D0FDF796FFA0EB0800A8420BD8A4
:1029F00055B12068806936EA000012D00020B84244
:102A0000EED00020BDE8F08154F8440F40F02000E3
:102A100044F80409202060700020A070207001207C
:102A2000F0E70120EBE700002DE9F0410026904699
:102A30000F460446202525E0424639462046FFF74A
:102A4000C9FE78BB20688069C043800613D4206823
:102A50008169C943490701D4218DC1B9C56154F8C1
:102A6000440B4168104A1140416044F82069657781
:102A7000A677267716E0FDF74DFFA0EB0800B842D9
:102A800008D83FB120688069C0434007D4D40020F3
:102A9000BDE8F08154F8440F40F0200044F80409E8
:102AA000657026700120F3E700E800FE70B5164659
:102AB0000D4604460DE0324629462046FFF78AFEC1
:102AC00008B1012070BDFDF725FF801BA84207D883
:102AD00035B120688069C0438006ECD4002070BD09
:102AE00054F8440F40F0200044F80409202060709E
:102AF0000020A0702070E4E770B516460D4604462D
:102B00000FE0324629462046FFF764FE08B1012057
:102B100070BD681C05D0FDF7FDFE801BA84207D8DC
:102B200035B120688069C0438007EAD4002070BDB9
:102B300054F8440F40F0200044F80409202060704D
:102B40000020A0702070E2E710B58AB0242168460A
:102B5000FDF78AFB30482F4C0460FDF7E9FC08B113
:102B600072B6FEE700200421CDE900010290039037
:102B70000246049069462848FDF716FC08B172B673
:102B8000FEE74FF4806200212348FDF7F1FB08B116
:102B900072B6FEE7102269461F48FDF705FC08B132
:102BA00072B6FEE7002210211B48FDF7C5FB08B1F5
:102BB00072B6FEE71948816D41F0005181652068C9
:102BC00040F004002060206840F4706020602068BD
:102BD00040F040002060206840F4802020602068A1
:102BE00040F070602060206840F4000020602068A1
:102BF00040F001002060206840F480302060002117
:102C00000548FDF7DFFC10210348FDF7DBFC0AB0A7
:102C100010BD000000740040280000200010024099
:102C200010B586B014216846FDF71EFB1948C16C2B
:102C300041F01001C164C16C01F010010591C16C3B
:102C400041F08001C164C16C01F080010591C16C4B
:102C500041F00101C164C16C01F001010591C16C39
:102C600041F00201C164C06C0B4C00F00200059001
:102C7000012208212046FDF748FE08200121CDE968
:102C800000010020CDE9021069462046FDF702FD53
:102C900006B010BD0010024000100048124810B5E8
:102CA000104901601149416000210122C0E902126E
:102CB000016141618161C1610162FDF7C5FE08B139
:102CC00072B6FEE700210848FDF72AFE08B172B689
:102CD000FEE700210448FDF74EFE002801D072B641
:102CE000FEE710BD005400403C0000205D3E302057
:102CF000144810B51249016000210163402241606F
:102D0000C0E90D21C163816001610F4A4161C0E9E1
:102D10000612C1604162816208220264C16201221E
:102D2000C0E91121C16401654165C0E9161201665F
:102D3000FFF794F8002801D072B6FEE710BD00003E
:102D4000045401408800002000770100FEE7FEE700
:102D50007047000010B503460020354C354AB3F5E6
:102D6000006F03D0B3F5805F09D045E0D2F888301A
:102D700003F44003B3F5400F08D1204610BDD2F84C
:102D8000883003F04073B3F1407FF6D0B3F5000F05
:102D90001DD0B3F1007F1AD073B3B3F5800F02D00A
:102DA000B3F1807FEAD113689B00E7D55369DB0359
:102DB000E4D5D068C0F30210401CB1FBF0F15069BB
:102DC000C0F30623506980032CD511202BE0136833
:102DD0009B01D3D5D368DB03D0D5D068C0F30210F4
:102DE000401CB1FBF0F0D168C1F30623D16813E0B9
:102DF0005843B0FBF1F010BD13681B01FBD51369FC
:102E0000DB03F8D5D068C0F30210401CB1FBF0F032
:102E10001169C1F306231169890301D51121E7E77F
:102E20000721E5E707205943B1FBF0F010BD000092
:102E300068FF1F00001002402DE9F041444C054698
:102E40008846E0680026810728680DD0E16801F017
:102E50000301814216D1A8B1E0686968C0F302108D
:102E6000401C88420ED120E0012804D0022805D061
:102E7000032807D108E02168890701E02168490596
:102E8000002907DB01265FE02168890302D421685D
:102E90004903F5E7E1686A686FF00F0321F07301F9
:102EA00003EB021211430143E160206820F08060CF
:102EB0002060FDF72FFD074605E000BFFDF72AFD66
:102EC000C01B022837D820680001F7D4B8F1000FE2
:102ED00018D0B8F1010F1ED0287D4FF07E41400878
:102EE00001EB4060A96840EA01202169194A1140BC
:102EF00008432061206840F080602060FDF70AFDF3
:102F000007461AE0A868E9680002090940EA41405A
:102F10002169114AEBE7288A1049400801EB40502B
:102F2000A96840EA012021690D4AE0E7FDF7F2FCBB
:102F3000C01B022801D9032606E020680001F5D550
:102F40002069A969084320613046BDE8F08100008E
:102F500000100240FF80FFF9FF80FDFF0000E0FF4E
:102F6000FF809FFF2DE9F0413D4C06468846E06812
:102F70000025810730680DD0E16801F0030181422E
:102F800016D1A8B1E0687168C0F30210401C8842F5
:102F90000ED120E0012804D0022805D0032807D153
:102FA00008E02168890701E021684905002907DB5D
:102FB000012551E02168890302D421684903F5E71E
:102FC000E16872686FF00F0321F0730103EB0212E6
:102FD00011430143E160206820F080502060FDF73C
:102FE00099FC074605E000BFFDF794FCC01B0228D2
:102FF00029D820688000F7D4B8F1000F15D0307CB4
:103000004FF07E41400801EB4060B16840EA01208A
:103010006169144A114008436061206840F08050A3
:103020002060FDF777FC07460FE0B068F16800020A
:10303000090940EA414061690B4AEBE7FDF76AFC88
:10304000C01B022801D9032506E020688000F5D5C1
:1030500060697169084360612846BDE8F08100003D
:1030600000100240FF80FFF9FF80FDFFF8B51C4D06
:1030700006460024A86DC00002D5FDF785FF0DE0CF
:10308000A86D40F08050A865A86D00F080500090B9
:10309000FDF77AFFA96D21F08051A965B0F5007F99
:1030A00004D0802E07D94FF003040AE0802E08D9FF
:1030B000A02E01D804E001D1022402E0702E00D13C
:1030C00001240848016821F00701214301600068DC
:1030D00000F00700A04201D00120F8BD0020F8BD9B
:1030E000001002400020024010B50E4941F658324F
:1030F00003680968B1FBF2F189001C68002224F41E
:1031000080341C6031B103681B68491EDB03F9D4AD
:10311000104610BD50F8801F41F0400101600322AD
:10312000F6E70000240000207047FDF769BE10B5E7
:1031300096B044216846FDF797F8142111A8FDF7D1
:1031400093F84FF40070FDF7EBFE08B172B6FEE79E
:10315000012000900004002401900A946846FEF7C4
:10316000E9FB08B172B6FEE70F2011900220CDE90D
:1031700012040146149411A81594FEF7D5FA0028FC
:1031800001D072B6FEE716B010BD00000B48016812
:1031900041F4700101600A48016841F001010160D9
:1031A000002181600268074B1A4002608214C260ED
:1031B000026822F4802202608161704788ED00E09D
:1031C00000100240FFFFF6EA10B50448FFF721F8AF
:1031D000BDE810400248FDF777B900000C0100205F
:1031E000280000202DE9F0470268264B264D274E87
:1031F000274F284C4FF0804A984209D0504507D0BD
:10320000A84205D0B04203D0B84201D0A04204D1B8
:1032100022F0700C4A6842EA0C02DFF87CC0DFF84A
:103220007C80DFF87C9098420FD050450DD0A842AA
:103230000BD0B04209D0B84207D0A04205D06045BB
:1032400003D0404501D0484503D122F44075CA68F7
:103250002A434D6922F080022A4302608A68C262D2
:103260000A688262984207D0A04205D0604503D028
:10327000404501D0484501D10969016301214161FF
:10328000BDE8F087002C0140000400400008004029
:10329000000C004000340140004001400044014067
:1032A00000480140FEE70907090E002804DB00F191
:1032B000E02080F80014704700F00F0000F1E020DB
:1032C00080F8141D704700000EB5FDF7A1FDFFF753
:1032D0002EFFFFF7A5FCFFF737FCFFF7DFFCFFF73A
:1032E00007FD00246148009401945F4D0294C0E9F9
:1032F00000544FF6FF71C0E902418461FEF738FFC8
:1033000008B172B6FEE70094694658480294FEF789
:10331000E1FE08B172B6FEE75548816D41F010013B
:1033200081650320A862FF20E862686840F0200001
:103330006860286840F0010028603620FDF7B0FD85
:103340004A20FDF7ADFD4B4C03212046FDF7D5FA91
:1033500003212046FDF7D1FA44480A240123464AB6
:103360009421D0380094FDF763FC434A3F48012381
:10337000921E9521D0380094FDF7C4FB3E4A3B488D
:103380000123521E9421D0380094FDF751FC3A4A93
:1033900036480123921E9521D0380094FDF7B2FBE8
:1033A000354A32480123521C9421D0380094FDF74D
:1033B0003FFC314A2D480123921E9521D0380094BC
:1033C000FDF7A0FB2C4A29480223121D9421D03876
:1033D0000094FDF72DFC284A244802230E32942144
:1033E000D0380094FDF724FC234A20480223921D84
:1033F0009421D0380094FDF71BFC1F4A1B48022380
:1034000008329421D0380094FDF712FC1A4A17486C
:1034100002230A329421D0380094FDF709FC164AA1
:10342000124802230C329421D0380094FDF700FC9E
:10343000114A0E4802230E329421D0380094FDF731
:10344000F7FB0D4A0948022310329421D03800942A
:10345000FDF7EEFB084A05480223921C9421D03860
:103460000094FDF7E5FBFEE7001000400C01002092
:103470000010024000100048020000204FF0407091
:10348000E1EE100A7047000000000000000000009C
:103490000102030406070809A0860100400D03008D
:1034A000801A060000350C0040420F0080841E0088
:1034B00000093D0000127A000024F40000366E017D
:1034C0000048E801006CDC02000000000102030477
:1034D000F03400080000002028000000C4010008AB
:1034E000183500082800002090070000E0010008BF
:1034F00000020106029E058020181D061C770EC2E0
:1035000004AF1E8100000000010000001000000058
:083510000000000000093D006D
:040000050800018965
:00000001FF
